:020000040800F2
:100000001805002091170008B1170008B317000861
:1000100000000000000000000000000000000000E0
:10002000000000000000000000000000B5170008FC
:100030000000000000000000B7170008B917000812
:100040004B070008C7070008EB0B0008670D000806
:10005000570F00086F1300086F1700087B17000880
:1000600000000000D1170008D3170008D5170008BA
:10007000D7170008D917000800000000DB17000898
:1000800000000000DD170008000000000000000074
:10009000DF17000800000000E1170008E317000860
:1000A000E5170008E7170008E9170008EB17000834
:1000B000ED170008EF170008000000000000000026
:1000C000FEB5060057D0B64CE0680C210140009107
:1000D000E06880214902084001903078C0070ED5C1
:1000E0004F000098082804D00C2868D10198884255
:1000F00065D12068074002D0706800283BD0307876
:1001000080072AD5F068BA4F0921C943009A042A0A
:1001100005D00C2A01D1019A002A00D08AE0226879
:10012000520701D5002826D06268174032691202B2
:100130003A436260226811400843206000F082FA6E
:10014000BD49E2681206120F895CC840BB490860CD
:10015000002000F0BFFA010030D1A70D3078C006B2
:1001600000D4B3E00098002800D090E0206880051B
:1001700003D5B069002800D1A1E16068B049014011
:10018000306A0843606060680002000AF16909068D
:10019000014361600120316A490B491C8840C0035A
:1001A000A549E2681206120F895CC840A34908609D
:1001B000002000F08FFA010000D187E0FEBD7068DA
:1001C000884201D1206809E0A021C9028842206844
:1001D00006D17900014321602068790801430AE0D3
:1001E000B9490140216020687908084002900298CE
:1001F0002068B64901402160706800280DD000F0E9
:1002000083FA05002068384000D078E700F07CFAD7
:10021000401B6528F6D30320FEBD00F075FA0500EB
:100220002068384000D16AE700F06EFA401B65286C
:10023000F6D3F0E704220192002817D0226811407B
:100240000843206000F060FA050020680199014031
:1002500005D100F059FA401B0228F6D9DBE76068A7
:100260000740306900023843606076E7206801216A
:100270008843206000F048FA050020680199014099
:10028000F3D000F041FA401B0228F6D9C3E7B06969
:100290000028206830D03843206000F035FA05008F
:1002A0002068800505D400F02FFA401B0228F7D9FA
:1002B000B1E7606862490140306A08436060606885
:1002C0000002000AF1690906014361603078000705
:1002D00030D570690028206D1DD0012101432165B2
:1002E00000F012FA0500206D800723D400F00CFA0C
:1002F000401B0228F7D98EE775490140216000F0C4
:1003000003FA050020688005E0D500F0FDF9401BE8
:100310000228F7D97FE701218843206500F0F4F92E
:100320000500206D800705D500F0EEF9401B02287E
:10033000F7D970E73078400763D500200190380581
:10034000A16B014004D1A16B0843A063012001907F
:1003500060480068384011D15E48006838435D4904
:10036000086000F0D1F905005A480068384005D10E
:1003700000F0CAF9401B6528F6D34CE7B168B942D2
:100380000AD0554800290DD0A022D200914209D1AF
:10039000206D210D01432165206D0743276508E08D
:1003A00000100240216D4A4A0A402265216D084032
:1003B0002065670DB06800280CD000F0A5F9050095
:1003C000206D384016D100F09FF9401B9A498842B1
:1003D000F6D320E700F098F90500206D384009D0E9
:1003E00000F092F9401B94498842F6D313E700BF0E
:1003F000FFE0FFFF0198002803D0A06B8F49014068
:10040000A163706A00285CD000990C2942D0802733
:10041000BF048B49022820682ED10140216000F0E2
:1004200073F90500206838400CD000F06DF9401BCE
:100430000228F7D9EFE600BF701600080000002080
:10044000FF1FFFFFE0689A490140B06A0843F16A64
:100450000143306B0843E060206879080143216064
:1004600000F052F90500206838402AD100F04CF91C
:10047000401B0228F7D9CEE60140216000F044F984
:100480000500206838401CD000F03EF9401B0228CF
:10049000F7D9C0E6012812D0E06880214902014066
:1004A000B26A91420BD1F02189030140F26A914274
:1004B00005D1C02109040140306B814201D00120E7
:1004C000FEBD0020FEBD00BFFFFFFEFFFFFFFBFFE4
:1004D000FFFEFFFF00700040FFFBFFFFF8B50400C8
:1004E00032D0009173480068C107C90F009881425B
:1004F0000CD27048016801229143009A0A430260BD
:100500000068C107C90F009881426FD16A4D2078F9
:10051000800705D5E868F0218843A1680143E960B8
:1005200001272068384051D06068022802D129682C
:10053000890308E0032802D12968890103E0012822
:10054000296802D1490702D450E089054ED5E968EF
:10055000032291430843E86000F0D6F80600606883
:1005600002280CD1E8680C21014008292ED000F0A7
:10057000CBF8801B30498842F4D30320F2BD032816
:100580000BD1E8680C2101400C291FD000F0BCF809
:10059000801B29498842F4D3EFE701280BD1E86892
:1005A0000C210140042911D000F0AEF8801B224933
:1005B0008842F4D3E1E7E8680C21014006D000F05E
:1005C000A3F8801B1C498842F5D3D6E73948009927
:1005D00002683A4091420BD20168B943009A0A433B
:1005E0000260006807400098874201D00120F2BDF8
:1005F0002078400705D5E86830490140E0680843A5
:10060000E8602078000706D5E8682D490140206998
:10061000C0000843E86000F015F82A49EA681206AD
:10062000120F895CC84028490860002000F052F889
:10063000010000D10020F2BD89130000FFFFFFEF91
:10064000FFFFFFFEF0B51C4DE968204A9308102615
:1006500054080C200840042804D0082809D00C288D
:1006600009D01DE02868064001D01800F0BD100038
:10067000F0BD2000F0BD16488F023F0FC05D09029B
:10068000890F491CEF68FF0301D5604305E02C6822
:10069000264001D0584300E0504300F03BF8F0BD45
:1006A000686801210004400F401C8140C803F0BD70
:1006B000FFFF02FF0020024000100240FFF8FFFF92
:1006C000FFC7FFFF70160008000000200024F400A0
:1006D0008016000838B5050000240A480068FA2191
:1006E000890000F017F800F052F8002801D001242A
:1006F00005E0290000220020C04300F044F820005B
:1007000032BD00BF0000002001480068704700BFF4
:1007100014010020094214D088420FD30122030C97
:1007200001D100041204002300185B418B4200D366
:100730005B1A5241F8D319001000704701000020E5
:10074000704708B500F03EF808BDFEE710B5C200DE
:1007500018231340FF249C40E2438907090E994067
:10076000030007D5144B0007000F083880088000ED
:10077000181803E011489B089B00C01803681A4032
:100780001143016010BD80B5FFF7E0FF01BD10B55A
:10079000401E80214904884201D3012010BD084C2D
:1007A000606003210020C043FFF7D0FF0020A0605D
:1007B0000721216010BD00001CED00E000E400E016
:1007C00010E000E07047FEE710B5040001D1012001
:1007D00010BD3920205C002804D13821605420004D
:1007E00000F035FA022039216054211D206800F004
:1007F0001FF921E010B5040001D1012010BD3920FE
:10080000205C002804D138216054200000F0A0FAB8
:10081000022039216054211D206800F009F90BE005
:1008200010B5040029E02068016A1C4A0A4003D17F
:1008300001680122914301600120392160540020A8
:1008400010BD00000400080006D0042908D00829C3
:100850000AD00C290CD010E02068C26802230AE0FC
:100860002068C268042306E02068C268082302E00A
:100870002068C26810231343C3600122206800F07F
:10088000A7F9206881684907490F062903D0016844
:1008900001220A430260002010BD00001111000077
:1008A000F8B504003820205C012801D10220F2BDF7
:1008B00001203823E05402203923E0542B4F8602D4
:1008C0000D00002A06D0042A15D0082A25D00C2AAB
:1008D00034D044E0206800F0D2F820688169082212
:1008E0000A43826120688169042291438161206802
:1008F0008169EA680EE0206800F0D7F82068816915
:100900000E438661206881690F4087612068816994
:10091000EA6812020A43826121E0206800F0DDF8F3
:100920002068C16908220A43C2612068C1690422A3
:100930009143C1612068C169EA680EE0206800F057
:10094000E3F82068C1690E43C6612068C1690F40A1
:10095000C7612068C169EA6812020A43C2610120C6
:1009600039216054002038216054F2BDFFFBFFFFA5
:1009700070B504003820205C012801D1022070BD30
:10098000260038360125357002203922A05420680F
:100990008268264B13408360086802003CD0102810
:1009A0003AD0202838D0302836D040282DD05028B2
:1009B0001DD0602822D0702803D06B0398420AD043
:1009C0002EE0CB684A688968206800F0E1F820686A
:1009D0008168772208E0CB684A688968206800F05F
:1009E000D7F820688168AA030A43826018E0CA68C1
:1009F0004968206800F0A1F850210EE0CA684968F3
:100A0000206800F0ABF8602107E0CA6849682068F8
:100A100000F093F8402100E00100206800F0B0F8F9
:100A2000392025540020307070BD00008800FFFF81
:100A300070B502685C4B5D4C8025ED05A84203D083
:100A4000A04201D0984208D17026B24316004A68ED
:100A50003243A84203D0A04201D0984203D1544B64
:100A60001340CA681A4380239A430B6913430360F7
:100A70008A68C262096881620121416170BD30B536
:100A8000026A01239A430262036A426885697324F9
:100A9000A5430C682C430225AB438D681D4342607F
:100AA000846149684163056230BD30B5026A102334
:100AB0009A430262026A436884693E4D25400C688D
:100AC00024022C432025AA438D682D011543436041
:100AD000846149688163056230BD30B5026A364B76
:100AE00013400362046A4268C56973239D430B681F
:100AF0002B43324D25408C6824022C434260C36155
:100B00004968C163046230BD30B5026A2C4B1340A2
:100B10000362036A4268C469264D25400C682402BA
:100B20002C43284D1D408B681B032B434260C4613E
:100B300049680164036230BD000030B5036A046A8D
:100B40000125AC4304628469F025AC4312012243C1
:100B500082610A2293431943016230BD30B5036AB2
:100B60001024A34303628469036A174D25401203CE
:100B70002A438261A022934309011943016230BDD7
:100B8000826870239A43114307220A4382607047A8
:100B900030B584680D4D254029430A43190211439D
:100BA000816030BD000000000014014000080140D9
:100BB000FFFCFFFFFF8CFFFFFFFEFFFFFFFDFFFFBE
:100BC000FFEFFFFFFFDFFFFFFF0FFFFFFF00FFFF54
:100BD00010B5C906C90E036A01248C40A343036201
:100BE000036A8A401A43026210BDFEE75248016858
:100BF00001220A4302604168802252050A43426092
:100C0000704710B586B004001422002101A800F03E
:100C1000A0F820684949884217D149488168420DA7
:100C20000A438260012102680A43026000680140B1
:100C300000910098C12001900320029000200390B1
:100C400001A9A020C00500F08FF806B010BD016812
:100C500039488022D205914204D1416801220A43D9
:100C600042607047374A914202D10168042204E091
:100C7000354A914203D1016820220A43026070473D
:100C8000F8B586B0040014220021684600F061F82F
:100C900023682E4EA020C00502240121284A0025E9
:100CA0008F07BB421ED113680B43136013681940B2
:100CB0000591059911682143116011682140059142
:100CC0000599202100910194029503950521049135
:100CD000694600F049F808200090019402950395B8
:100CE000049422E0174FBB420ED113680B431360EC
:100CF00012681140059105990C210091019402950B
:100D000003950495694612E00F48834211D110689B
:100D10002043106010682040059005983020009016
:100D2000019402950395042004906946300000F078
:100D30001BF807B0F0BD0000341002400024014051
:100D40002C10024000080140001401400004005033
:100D5000704710B50400080011000200200000F0E8
:100D6000D3F8200010BDFEE7F0B585B00A000025DD
:100D70005E49019101210391010037E0062003E063
:100D80005B488142FAD10520A040304318600198A9
:100D90000368029CE04303405468E40302D51C004E
:100DA000029B2343019C2360019B5B6803405468C2
:100DB000A40302D51C00029B2343019C6360019B9A
:100DC0009B6803405468E40202D51C00029B234345
:100DD000019CA360019BDB68184053689B0202D50D
:100DE000030002981843019BD8606D1C1068030033
:100DF000EB4073D0039BAB400493034002930298F3
:100E00000028F2D0A8006B4618705068022801D064
:100E100012280ED1E80880000818036A6C4626786C
:100E20001C2434400F26A640B3431669A6401E4337
:100E300006626B0003209840C4435068012805D027
:100E4000022803D0112801D012280FD18868204031
:100E5000D6689E4006438E604868049EB04356683C
:100E60003609039F3740AF4007434F600E680320A9
:100E70002640576807409F4037430F60CE68344094
:100E800096689E402643CE605368DB00ADD5194B73
:100E90001B68039C1C43174B1C60174BAC08A40039
:100EA0001B191E686C4627780C243C400F27A7406E
:100EB000BE43A027FF05B94201D1002064E70F4FD0
:100EC000B94201D103985FE70D4FB94201D1022029
:100ED0005AE70C4FB94200D052E755E705B0F0BDD4
:100EE000002A01D08161704781627047000401408F
:100EF000001C005034100240080001400004005063
:100F000000080050000C00501206130A1A43130C7C
:100F10001A4300BF094205D0830705D00270401C68
:100F2000491EF9D1704700001300103906D330B4C0
:100F30001400150010393CC0FCD230BC490700D366
:100F40000CC000D504C0890002D30280801C002997
:100F500000D502707047FEE710B5D34C0122042182
:100F60002000FFF7BDFFC82000F0BCF900220421DB
:100F70002000FFF7B5FF10BD10B5CC4C00212000BC
:100F8000FFF74EFC04212000FFF74AFCC84C00216B
:100F90002000FFF745FC04212000FFF741FCC54C71
:100FA00000212000FFF73CFC04212000FFF738FC63
:100FB00010BDF8B58AB000F0A5F900F046F914228A
:100FC00000216846FFF7C5FEBB48016804220A43BA
:100FD000026001680422114005910599016801220F
:100FE0000A4302600168CA07D20F05920599016899
:100FF00002220A4302600068022108400590059819
:10100000A94E002245213000FFF76AFFC0200002F0
:10101000009003250195002402946946A748FFF734
:10102000A3FEA7480090019502946946A020C00540
:10103000FFF79AFE4520009001200190029403944E
:1010400069463000FFF790FEC120400000900195F6
:10105000029469463000FFF787FE1022002106A89F
:10106000FFF777FE082200216846FFF772FE102284
:10107000002102A8FFF76DFE8C4D8020C00528607E
:101080006C60AC606427EF602C616C612800FFF736
:101090009BFB80204001069006A92800FFF768FC12
:1010A0002800FFF7A7FB009401946946280000F090
:1010B0003DF9602002906326039604940594002273
:1010C00002A92800FFF7ECFB042202A92800FFF781
:1010D000E7FB2800FFF7D4FD1022002106A8FFF748
:1010E00038FE082200216846FFF733FE1022002157
:1010F00002A8FFF72EFE6E4D724828606C60AC604F
:10110000EF602C616C612800FFF75EFB80204001DE
:10111000069006A92800FFF72BFC2800FFF76AFBC2
:10112000009401946946280000F000F960200290C4
:10113000039604940594002202A92800FFF7B0FB4F
:10114000042202A92800FFF7ABFB2800FFF798FD57
:101150001022002106A8FFF7FCFD082200216846A6
:10116000FFF7F7FD1022002102A8FFF7F2FD514D15
:10117000554828606C60AC60EF602C616C612800A1
:10118000FFF722FB80204001069006A92800FFF708
:10119000EFFB2800FFF72EFB00940194694628001E
:1011A00000F0C4F860200290039604940594002295
:1011B00002A92800FFF774FB042202A92800FFF708
:1011C0006FFB2800FFF75CFD082200216846FFF74F
:1011D000C0FD3E4D3E482860EC636C60AC60022070
:1011E000A86301202861EC6020216C5421216C54FB
:1011F000AC62FF20C23068622C216C54042068610C
:101200002C63AC616C630120E861280000F0B0F849
:1012100001200090000301906946280000F08CF93D
:101220002C4800906946280000F086F92A48009072
:101230006946280000F080F9FFF79EFEFFF78CFE5C
:10124000FA20400000F04EF8F8E710B592B03422D2
:10125000002105A8FFF77DFD142200216846FFF755
:1012600078FD1E4801681E4A0A40C10C1143016006
:1012700012200590092008901020099001200B9061
:1012800000240C9440030D900E9405A8FEF718FF5F
:101290000F20009001940294039404940021684666
:1012A000FFF71CF912B010BD0004005060000020D0
:1012B0009C000020D80000202C10024000080050A4
:1012C000129F0000000801400014014004000020AB
:1012D00000240140400000188000001C0070004005
:1012E000FFE7FFFF38B50400FFF70EFA0500002006
:1012F000C043844200D0641CFFF706FA401BA042A2
:10130000FAD331BD10B500240748016840220A43D2
:1013100002600020FFF7DEF9002801D0012401E07F
:10132000FFF764FC200010BD00200240F0B5382219
:10133000825C012A01D10220F0BD02003832012373
:10134000137002243925445504686568A66880270F
:10135000BE434F6837437026B5430968294361602F
:1013600001688F603921435400201070F0BDFEE702
:10137000F8B5040016D0250050350026686800280E
:1013800004D1AE602E702000FFF73BFC102069688E
:10139000014003D121688A68520705D5696808436E
:1013A00068602E700120F2BD68685C4A024002202D
:1013B000104368605A488A689207920F012A02D146
:1013C0000A68D2072AD46268564BC0273F06BA4241
:1013D00006D05F1CBA4203D080273F06BA4208D12C
:1013E0000A6913400B6121680A69636813430B6142
:1013F0000AE00A6913400B6101684B4A0A40026027
:10140000016862680A4302602168CA6818239A4327
:10141000CA602168CA68A3681343CB600168434A65
:101420000A4002600168626B52060A43026020684B
:101430008021490582680A4002D182681143816097
:101440002068C1683A4A0A40C2602069022801D176
:10145000042200E000222168C868E3681A432023C0
:10146000E35C5B0313432C22A25C57001F43226BF7
:101470003A43A3699B031343E269D2031A4302432D
:10148000CA60606AFF21C231884205D02168CA68FB
:10149000A36A03431343CB6001202121615C01292E
:1014A00010D12021615C002905D12168CA6803049C
:1014B0001343CB6006E0696820220A436A60A9688A
:1014C0000143A960E16B012921680A690FD1194B19
:1014D00013400B6121680A69276C636C3B43A76C5E
:1014E0001F4317430F6121680A69024303E002406A
:1014F00002D00A6982430A6121684A6907239A4334
:101500004A6121684A69A36B13434B61AE60696805
:1015100002229143084368600020F2BDFFFEFFFFF6
:1015200008270140FFFFFF3FFFFFC3FFFFFFFFFD55
:101530001902FEFF03FCFFFFFEB55022825C012A68
:1015400001D10220FEBD0700503701223A70006829
:1015500000248268520706D578682021014379600B
:101560003C700120FEBD009109684903490B0191BF
:101570008025AD02224E6900009A5268214B9A42A2
:10158000826A019B15D01343836200980068014072
:1015900006D03068A901014331600A2000F01EF82E
:1015A00000980068054016D030688021C9030143C7
:1015B00010E09A43826200980068014003D03068CE
:1015C00011490140316000980068054003D030683F
:1015D0000E49014031603C700020FEBD18B504008A
:1015E0000B4800680B49FFF795F84443009402E06C
:1015F0000098401E009000980028F9D111BD00000D
:101600000827014001100000FFFF7FFFFFFFBFFF21
:101610000000002040420F000F480168820D0A437D
:101620000260C1680D4A0A40C26001680C4A0A4063
:10163000026081680122914381600168094A0A4081
:101640000260C168084A0A40C2600021016180202E
:101650000005064908607047001002400C40FF88F2
:10166000F6FFF6FEFFFFFBFFFFFF02FF08ED00E0C5
:101670000000000000000000010203040607080942
:10168000030406080C1018203000000070B4012379
:10169000002413E00168001D194202D04D466D1E62
:1016A00049190C60091D121F042AFAD20D00960771
:1016B00001D50C80AD1C1A4000D02C700268001DB2
:1016C000002AE7D170BC704730B401220EE00368F5
:1016D000C31844680830144202D04D466D1E641988
:1016E0001D6825601B1D241D091FF9D10168001DFF
:1016F0000029ECD130BC704710B507497944183146
:10170000064C7C44163404E0081D0A688918884792
:101710000100A142F8D110BD08000000280000001F
:101720006DFFFFFF14010000040000200000000016
:1017300099FFFFFF0400000094000000000000205B
:101740000000000000F00DF8002801D0FFF7D4FFE2
:1017500000BF00BF002000BF00BFFFF72AFC00F061
:1017600002F80120704780B500F002F801BDFEE7E5
:101770000746384600F002F8FBE7FEE780B500BFF9
:1017800000BF024A11001820ABBEFBE72600020092
:10179000014880470148004719160008C117000892
:1017A00002480168491C0160704700BF1401002015
:1017B0007047FEE77047704780B5FFF7F1FF01BD46
:1017C00000BF00BF00BF00BFFFF7BCFF000020004C
:1017D000FEE7FEE7FEE7FEE7FEE7FEE7FEE7FEE7E1
:1017E000FEE7FEE7FEE7FEE7FEE7FEE7FEE7FEE7D1
:04000005080017C117
:00000001FF
