:020000040800F2
:1000000000200020456A00087D6100088161000829
:1000100000000000000000000000000000000000E0
:10002000000000000000000000000000B5500008C3
:10003000000000000000000091510008D5510008A8
:10004000956A0008956A0008956A0008956A000894
:10005000956A0008956A0008956A0008956A000884
:1000600000000000956A0008956A0008956A00087B
:1000700089610008956A000800000000956A000880
:10008000000000009961000800000000000000006E
:10009000956A000800000000956A0008956A00084B
:1000A000956A0008956A0008956A0008956A000834
:1000B000956A0008956A0008000000000000000032
:1000C00010B5064C2378002B07D1054B002B02D02E
:1000D000044800E000BF0123237010BD3C00002055
:1000E000000000003C6B0008044B10B5002B03D04F
:1000F0000349044800E000BF10BDC04600000000F6
:10010000400000203C6B00080023C25C0133002A41
:10011000FBD1581E70470000002243088B4274D365
:1001200003098B425FD3030A8B4244D3030B8B42F8
:1001300028D3030C8B420DD3FF22090212BA030C01
:100140008B4202D31212090265D0030B8B4219D3E2
:1001500000E0090AC30B8B4201D3CB03C01A524102
:10016000830B8B4201D38B03C01A5241430B8B424A
:1001700001D34B03C01A5241030B8B4201D30B0333
:10018000C01A5241C30A8B4201D3CB02C01A52415A
:10019000830A8B4201D38B02C01A5241430A8B421D
:1001A00001D34B02C01A5241030A8B4201D30B0206
:1001B000C01A5241CDD2C3098B4201D3CB01C01A20
:1001C000524183098B4201D38B01C01A524143092A
:1001D0008B4201D34B01C01A524103098B4201D318
:1001E0000B01C01A5241C3088B4201D3CB00C01A85
:1001F000524183088B4201D38B00C01A52414308FD
:100200008B4201D34B00C01A5241411A00D2014621
:10021000524110467047FFE701B5002000F0F0F8AA
:1002200002BDC0460029F7D076E7704703460B436E
:100230007FD4002243088B4274D303098B425FD3DF
:10024000030A8B4244D3030B8B4228D3030C8B420B
:100250000DD3FF22090212BA030C8B4202D31212F1
:10026000090265D0030B8B4219D300E0090AC30BC6
:100270008B4201D3CB03C01A5241830B8B4201D373
:100280008B03C01A5241430B8B4201D34B03C01A5C
:100290005241030B8B4201D30B03C01A5241C30AD4
:1002A0008B4201D3CB02C01A5241830A8B4201D345
:1002B0008B02C01A5241430A8B4201D34B02C01A2F
:1002C0005241030A8B4201D30B02C01A5241CDD2D4
:1002D000C3098B4201D3CB01C01A524183098B421F
:1002E00001D38B01C01A524143098B4201D34B0108
:1002F000C01A524103098B4201D30B01C01A52416B
:10030000C3088B4201D3CB00C01A524183088B42F1
:1003100001D38B00C01A524143088B4201D34B00DA
:10032000C01A5241411A00D201465241104670474C
:100330005DE0CA0F00D04942031000D34042534051
:1003400000229C4603098B422DD3030A8B4212D311
:10035000FC22890112BA030A8B420CD38901921143
:100360008B4208D3890192118B4204D389013AD080
:10037000921100E08909C3098B4201D3CB01C01A55
:10038000524183098B4201D38B01C01A5241430968
:100390008B4201D34B01C01A524103098B4201D356
:1003A0000B01C01A5241C3088B4201D3CB00C01AC3
:1003B000524183088B4201D38B00C01A5241D9D2DB
:1003C00043088B4201D34B00C01A5241411A00D25C
:1003D0000146634652415B10104601D34042002B58
:1003E00000D54942704763465B1000D3404201B5D7
:1003F000002000F005F802BD0029F8D016E770478C
:100400007047C0468446101C62468C46191C6346E1
:1004100000E0C0461FB501F055FE002801D40021C0
:10042000C8421FBD10B501F0ADFD4042013010BD06
:1004300010B501F047FE002801DB002010BD0120AF
:1004400010BDC04610B501F03DFE002801DD0020C2
:1004500010BD012010BDC04610B501F0CFFD002831
:1004600001DC002010BD012010BDC04610B501F018
:10047000C5FD002801DA002010BD012010BDC046D6
:100480008446081C6146FFE71FB500F06DFB00289D
:1004900001D40021C8421FBD10B500F0EFFA404260
:1004A000013010BD10B500F05FFB002801DB00201B
:1004B00010BD012010BDC04610B500F055FB00284E
:1004C00001DD002010BD012010BDC04610B500F0B8
:1004D000FDFA002801DC002010BD012010BDC0463F
:1004E00010B500F0F3FA002801DA002010BD012059
:1004F00010BDC0469E2110B5C905041CFFF7F0FFD2
:10050000002803D1201C00F075FE10BD9E21201C88
:10051000C90500F0ABFC00F06DFE80231B069C4675
:100520006044F2E7F8B54746CE4643025B0A440012
:10053000C20F9C464800DD004B02240E5B0A000EF1
:1005400080B5984626009146C90FDB00271A8A42DB
:1005500029D0002F15DD00284AD1002B00D095E0CE
:10056000ED08FF2C00D188E06B025B0AE6B25B026B
:10057000F605580A3043D20710430CBC9046994602
:10058000F8BD002F00D087E0601CC0B2012800DC5D
:10059000B6E0EE1A720100D5C5E0002E3DD1002272
:1005A00000260023E3E7002F00DC96E000285DD062
:1005B000FF2C60D08022D20413431B2F00DDECE01F
:1005C0002022D21B18009340F8405A1E9341034347
:1005D000ED186B017BD50134FF2C00D1B7E001226F
:1005E00007262A406B089A4D1D4015432E4029E0EE
:1005F000FF2CB5D08022D20413431B2F00DDB2E0C4
:100600002022D21B19009340F9405A1E93410B43FC
:10061000ED1A6B015BD5AD01AE09300002F034F983
:1006200005388640844265DC041B330020200134F9
:10063000E340041BA640751EAE41334307261D0050
:1006400000241E4001224B461A40002E04D00F23E6
:100650002B40042B00D004356B0100D480E701341B
:10066000E6B2FF2C2FD1FF26002380E7002B52D1CA
:10067000FF2C00D074E70A00ED08002DF3D0802392
:10068000DB032B435B025B0AFF2670E7013F002F71
:10069000BED0FF2CB1D163E7002C47D0FF2869D032
:1006A0008024E4047A4225431B2A00DDC5E02C00A7
:1006B0002026D440B21A95406A1E954125435D1B01
:1006C00004008946A5E7AB015B0A50E7002401223C
:1006D0004B461A406B07BAD142E7002F3BD1013499
:1006E000E0B201284ADDFF2CBDD00726ED186D08C9
:1006F0002E40A7E70723574D241A35401E40A1E797
:10070000002C1BD1002D6ED1002B00D19AE00A00E5
:100710001D003C0024E7013F002F00D158E7FF2CCB
:1007200000D04AE7A7E75E1B894676E7002D1CD17B
:100730000A00FF281FD004001D0011E7002D5DD125
:10074000002B17D180230022DB03FF260FE70A00CE
:10075000FF2600230BE7002C21D1002D66D1FF28B6
:10076000E9D11D0087E7012352E77A1CA7D0FA439D
:10077000FF2899D10A001D00FF24F1E6002E21D1A7
:10078000002D4FD0002B4CD0ED186B019ED5314B76
:1007900007362E4001241D4054E7012318E7FF28A7
:1007A000DFD08024E4047F4225431B2F4DDC20262C
:1007B000F61B2C00B540FC406A1E95412543ED1800
:1007C000040006E7002DCCD0002B00D153E7802198
:1007D0006046C903084203D04046084200D11D00CC
:1007E0000121114047E7002B00D1B9E6EA1A500178
:1007F00025D507265D1B2E40894623E7FF24002BC5
:1008000000D1ADE680226046D203104204D04046BB
:10081000104201D11D00894601224B46FF241A4097
:100820009EE62B00DD080A0000249DE67A1CC6D057
:10083000FF43FF28B9D11D001DE701253FE7151E25
:1008400000D044E70022002391E60125B7E7C04627
:10085000FFFFFF7DFFFFFFFBF8B557464E464546BD
:10086000DE464402E0B546008846640A360EC70FED
:10087000002E63D0FF2E24D08023E400DB041C4331
:10088000002399469B467F3E434642465D02D20F77
:100890005B006D0A1B0E9046924665D0FF2B55D02B
:1008A00080220021ED00D2047F3B1543F61A434617
:1008B0004A467B400F2A00D98DE06D48920082584D
:1008C0009746002C54D108239946063BFF269B46A9
:1008D000DAE70025534602291BD0032900D1BFE0E7
:1008E000012928D030007F30002820DD6A0704D09D
:1008F0000F222A40042A00D004352A0103D53000F3
:100900005C4A80301540FE2803DCAC01640AC2B2A8
:1009100001E0FF2200246402D205600ADB071043D5
:1009200018433CBC90469946A246AB46F8BD01220E
:10093000101A1B287CDD00220024ECE7002C1DD1BE
:1009400004239946033B00269B469DE7FF3E002D6E
:1009500020D1022143464A467B400A430F2AD8D879
:100960004548920082589746002D19D10121F1E7A0
:100970000C239946093BFF269B4685E7200001F0A2
:1009800083FF7626431F9C4000237642361A994601
:100990009B4679E74A4603231A439146032186E79B
:1009A000280001F071FF431F36189D407636002164
:1009B0007DE780240023E403FF22ACE700258023A9
:1009C000DB031C4228D01D4226D12B435C02640A63
:1009D0004346FF229FE762016C01A24224D21B2101
:1009E0000025013E012710006D005200002801DBA8
:1009F000944201D8121B3D4301390029F3D1140060
:100A0000621E944125436DE7BA4659462500534678
:100A1000022900D061E77CE78023DB031C436402EA
:100A2000640A3B00FF2276E7121B1A210125D9E751
:100A30009E362A00B5402C00C240651EAC411443CE
:100A4000620704D00F222240042A00D0043462013D
:100A500003D4A401640A00225DE7012200245AE7BE
:100A60008024E4032C436402640AFF2253E7C04657
:100A7000706B0008FFFFFFF7B06B000870B5420015
:100A80004E024C0045026D0A120EC30F760A240E68
:100A9000C90FFF2A0FD0FF2C11D00120A24200D095
:100AA00070BDB542FCD18B420DD0002AF8D1280090
:100AB000451EA841F4E70120002DF1D1EBE701200C
:100AC000002EEDD1E9E70020EAE7C04670B54A0004
:100AD0004E02450244006D0A240EC30F760A120E20
:100AE000C90FFF2C15D0FF2A0ED0002C15D1002ADB
:100AF00001D1002E1CD0002D14D08B4227D0022013
:100B0000013B1840013870BD002EEED0022040425B
:100B1000F9E7002DFAD1FF2A0ED0002A0ED1002EBF
:100B2000EDD00BE001230139994308000130EAE7D9
:100B30000020002DE7D0E2E7002EE7D18B42DED186
:100B4000944205DD0221581E08400138DBE70024ED
:100B5000A24204DCB542D2D80020B542D3D2581EFE
:100B6000012398430130CEE730B5420044024D02E4
:100B7000C30F4800640A120E6D0A000EC90FFF2A47
:100B800012D0FF280CD0002A12D1002819D1002D34
:100B900017D1002C2BD00220013B1840013826E051
:100BA000002DF0D0022022E0002CFBD1FF281FD026
:100BB00000281FD1002D1DD10220013B1840013813
:100BC00015E0002C0ED08B42E5D10022904204DCCF
:100BD000AC42E0D80020AC4209D2581E0123984311
:100BE000013004E00123013999430800013030BD90
:100BF000002DD7D18B42CED18242E7DD0221581E93
:100C000008400138F3E7C046F0B54E465746454622
:100C1000DE46E0B543025B0A450083B00F1C9946EF
:100C20002D0EC60F002D57D0FF2D24D08020DB00C5
:100C3000C0041843002381469A469B467F3D7C02B0
:100C40007A00FB0F640A120E984623D0FF2A4BD07D
:100C5000E30080240020E4047F3A1C43AD186B1CA1
:100C600047460193534677403A000F2B48D87D49B9
:100C70009B00CB589F46002B00D085E008339A4656
:100C8000063B9B467C027A00FB0FFF25640A120E8E
:100C90009846DBD1002C00D090E0524601231A4345
:100CA00092460120DBE74C4658461700022824D024
:100CB000032800D1CFE00022002301284DD15802A3
:100CC000D205400AFF071043384303B03CBC9046AE
:100CD0009946A246AB46F0BD002B5BD104239A4651
:100CE000033B00259B46AAE7FF35002C60D1524606
:100CF00002231A4392460220B1E7FF220023DEE7D7
:100D00004B461B0C9C464B462604360C1804614689
:100D10003300220C6446000C43434E43504354437B
:100D200080191A0C1218964203D9802149028C4668
:100D300064441B041B0C1004C01883015E1EB341E5
:100D4000800E1843130C1B199B0103431C00230145
:100D500079D5012362081C401443019A7F32002A8E
:100D60004DDD630704D00F232340042B00D004344F
:100D7000230103D53C4B019A1C408032FE2ABCDC87
:100D8000A3015B0AD2B29AE70C239A46093BFF25DE
:100D90009B4654E7180001F077FD4A46431F76252D
:100DA0009A4000236D4291462D1A9A469B4646E78B
:100DB000524603231A439246032050E7200001F0D5
:100DC00063FD431F2D1A9C40763D002047E780239A
:100DD0000027DB03FF2272E7424666E74C463200FB
:100DE000584662E780234A46DB031A4222D01C425F
:100DF00020D123435B025B0A4746FF225FE70123C2
:100E00009A1A1B2A21DC23000199D3409E318C4081
:100E10001A0023005C1EA34113435A0704D00F227B
:100E20001A40042A00D004335A0111D49B015B0AF2
:100E3000002244E780234A46DB0313435B025B0A3C
:100E40003700FF223BE7019587E70022002336E7C2
:100E50000122002333E78023DB0323435B025B0A89
:100E6000FF222CE7F06B0008FFFFFFF7F8B54746BD
:100E7000CE464400C20F80B547024802400A84466D
:100E8000664648007F0A240EF60025009046FB00C7
:100E9000000EC90FB146FF2800D185E00126714040
:100EA000261A914257D0002E43DD002800D07FE063
:100EB0004946002900D1AAE0013E002E00D0F7E00B
:100EC0005B1A5A0100D48BE09B019C09200001F0C1
:100ED000DBFC05388440854200DDD3E0451B230060
:100EE00020200135EB40451BAC40621E944123435A
:100EF000072400251C40012241460A40002C04D052
:100F00000F211940042900D00433590100D480E096
:100F10000135ECB2FF2D00D0A3E0FF2400235B02DB
:100F2000E405580AD207204310430CBC904699466A
:100F3000F8BD002E74D1601CC0B2012800DCA7E00F
:100F40004A469C1A620100D5B6E0002CBED10022B0
:100F500000240023E3E7002E00DC85E0002846D0D3
:100F6000FF2C49D080224846D204104381460122FA
:100F70001B2E09DC20204C46801B84404A46200062
:100F8000F240441EA04102439B185A0128D5013566
:100F9000FF2D00D1A8E00122072494491A405B08E4
:100FA0000B4013431C40A6E7002E00D078E775E7FE
:100FB000FF2C54D080224946D20411438946012295
:100FC0001B2E09DC20214846891B88404A46010027
:100FD000F240481E81410A439B1A5A0100D573E72B
:100FE000012241460A40590700D089E711E04846EE
:100FF000002858D1FF2C0CD1DB08002B00D18CE746
:101000008020C00303435B025B0AFF2487E7FF2CB9
:1010100025D0DB08FF2DF0D05B025B0AECB27EE747
:10102000002C4DD0FF2818D08024E40472422343C2
:101030001B2A00DDC4E01C002025D440AA1A9340DE
:101040005A1E934123434A460500D31A884638E77F
:10105000721CF8D0F243FF28EAD10A004B46FF2564
:10106000D7E79B015B0A5AE7002E41D1651CE9B224
:10107000012945DDFF2D00D14FE707244B445B08D4
:101080001C4038E707225A4B2D1A2340144032E700
:10109000002C1DD1002B7AD14B46002B00D191E0C2
:1010A0000A000025B5E7013E002E19D14B446CE73C
:1010B000FF2C84D1FF25ACE74A468846D41A05E7C1
:1010C000002BC5D10A00FF28C8D005004B46A0E779
:1010D000002B49D14B46002B77D00A00FF2598E71B
:1010E000FF2C00D043E787E70A00FF24002316E720
:1010F000002C15D1002B57D1FF28E6D14B467BE7BA
:10110000002C20D1002B57D04946002953D04B4406
:101110005A0168D50724364A1C4001251340EAE6E7
:10112000FF28EBD08022D204764213431B2E53DCDF
:101130002025AD1B1A00AB40F2405C1EA3411343B7
:101140004B44050021E7002BD8D04946002900D1A7
:1011500052E78021C9030F4200D14DE760460842A3
:1011600000D049E74B4647E74846FF25002800D115
:101170004FE78022D203174204D06046104201D1CB
:101180004B46884601224146FF250A4041E7484632
:1011900000281FD01A1A500120D54A460724D31A16
:1011A0001C4088460025A6E6741CC9D0F643FF28DB
:1011B000BCD14B4620E799464B460025DB082BE780
:1011C000012340E700220023A9E680230022DB035D
:1011D000FF24A4E600251CE70123B1E7002AF1D093
:1011E00013000025FCE60025FAE6C046FFFFFF7D60
:1011F000FFFFFFFB41024200C30F490A120E00200D
:101200007E2A0DD99D2A0CD8802000040143952AFE
:101210000ADC9620821AD1404842002B00D10800F7
:101220007047034A9818FBE7963A9140F4E7C046A6
:10123000FFFFFF7F70B500283DD0C317C5185D4084
:10124000C40F280001F020FB9E22121A962A07DC08
:10125000D2B2082833DD083885406802400A23E00E
:10126000992A0BDD052329001B1AD94003001B33E3
:101270009D402B005D1EAB4119430D00052801DD8B
:10128000431F9D402B000F490B406E0709D00F26CE
:101290003540042D05D004335D0102D59F220B405B
:1012A000121A9B01580AD2B24002D205400AE40742
:1012B0001043204370BD002400220020F4E76802A0
:1012C000400AF1E7FFFFFFFB70B5041E34D001F0C8
:1012D000DBFA9E22121A962A07DCD2B208282EDDEB
:1012E000083884406002400A21E0992A09DD0300A1
:1012F00021001B3399404B1E994105231B1ADC40EA
:101300000C43052801DD431F9C4023000D490B4081
:10131000650709D00F252C40042C05D004335C014F
:1013200002D59F220B40121A9B01580AD2B24002EA
:10133000D205400A104370BD00220020F7E760028A
:10134000400AF4E7FFFFFFFBF0B54F464646D6469E
:101350000C000903C0B5490A470F5E0039431F035B
:10136000DB0F9C4665007B0A570F1F436D0DE40F92
:10137000760DA146C000B846D200AB1B64457BD0B9
:10138000002B5FDD002E00D0A4E03E00164300D10C
:1013900012E15E1E002E00D09EE1871A4346B8423D
:1013A00080410125C91A4042091A0B0200D431E1DB
:1013B00049024E0A002E00D16EE1300001F064FABD
:1013C0000300083B1F2B00DD61E120223900D21A07
:1013D0009E40D1409F400E439D4200DD51E15D1B88
:1013E0006B1C1F2B00DD7CE12021C91A3D00300061
:1013F0008F408840DD40791E8F413100072228430D
:10140000D940002507433A40002A09D00F233B402A
:10141000042B05D03B1DBB42BF417F42C9191F00B1
:101420000B0200D426E26A1CC64B55056D0D9A428C
:1014300000D106E1C44AFF080A40530752023B4369
:10144000120B8EE0002B00D0B8E06B1C5B055B0D2F
:10145000012B00DC30E1871A4346B842B641CB1A73
:1014600076429E1B330200D54CE13B003343A1D1B1
:1014700000220024002570E0002B00DCE5E0002EB7
:1014800000D183E0AF4EB54260D0802636043743AA
:10149000B846382B00DC3EE1434613431F007A1E5A
:1014A00097413F1887428041404209180B0200D4FF
:1014B000B0E0A44B01359D4200D1C3E0A24A7B08B5
:1014C0000A4001210F401F435108D30707221F4341
:1014D0003A4099E79B4EB54238D0802636043743D0
:1014E000B846382B00DDDCE01F2B00DC30E11E00AD
:1014F0004746203EF740BC46202B04D04026F31A36
:1015000046469E403243170063467A1E97411F436A
:10151000CCE0002B00D104E24346134300D159E153
:101520004B07C00818438023C9081B03194208D081
:101530004546ED081D4204D14346D00859070843EB
:101540002900420FC9007F4D1143C0004B07CA0854
:101550007C49C00803438D4268D012036D05120B0D
:101560006D0D002112031800130B0A0D12051A430A
:10157000764B2D0513402B435B00E4075B082343A8
:1015800019001CBC90469946A246F0BD3E00164389
:1015900012D05E1E002E00D000E1871887428041E5
:1015A00041444042091801250B0233D5022585E745
:1015B00064463300414610001D00C7E7002D00D0EF
:1015C000DAE00C000443F3D05C1C00D19FE15D4CD9
:1015D000A64200D12FE1DB43382B00DD66E11F2B53
:1015E00000DD83E120240500E41A0F00DD40D9402E
:1015F000A0404346A7405B1A441EA04198462F4393
:101600003843171ABA42924143465242991A6446E5
:101610003500CAE607223A40002A00D0F6E64B071A
:10162000CA084849FF083B438D4296D1190011432F
:1016300000D19EE1802109030A431203120B414DA0
:101640008FE71500002200238BE7002B00D0C7E0B6
:101650006B1C5F057F0D012F00DCF1E0394DAB42C3
:1016600000D1B9E085180A008542894142444942C7
:1016700051180722CF076D082F4349083A401D0033
:10168000C2E607223049ED1A31403A40BCE63E003E
:101690002838864000279FE6380001F0F5F8203012
:1016A0008EE6434613431F007A1E9741C71BB8427C
:1016B00080414042091A78E60E003B00064313437E
:1016C000002D61D1002E00D0F4E0002B00D11BE1F1
:1016D00064463900100039E71A4FBB427AD0330014
:1016E000FFE630001F3DE840202B03D04021CB1AFD
:1016F0009E4037437B1E9F41072207433A4000210B
:10170000002589E7171A4346BA42B641591A76426C
:101710008E1B64464EE61F2B00DDADE020264746BB
:10172000F61AB740B9461700B246DF404E463E4370
:1017300037005646B240561EB24117434246DA4081
:101740008918AEE6FF070000FFFF7FFFFFFF0F8055
:1017500020264746F61AB740B9461700B246DF4082
:101760004E463E4337005646B240561EB2411743DE
:101770004246DA40891A99E77F4CA6425BD0802422
:1017800024045B42214327E7002E0CD1002B00D11B
:10179000CBE0644639001000774DD7E6764FBB4268
:1017A00018D0330075E6002B14D04B07C00818433F
:1017B0008023C9081B03194207D0FC081C4204D12E
:1017C0007907D0080843E14621004C46420FC90082
:1017D0001143C000684DB9E61D0000220023C0E699
:1017E000002D5BD10D00054300D1E2E65D1C00D168
:1017F000B0E0614DAE421FD0DB43382B71DC1F2BB4
:1018000000DD96E020250F00ED1AAF40B946070035
:10181000AA46DF404D463D432F005546A840D940DB
:10182000451EA84188440743BF1897429241514240
:10183000414435003AE6644635004146100085E6ED
:101840000B000343002D00D063E6002BF5D0434688
:10185000134300D17AE6871887428041072241442A
:10186000404209183A400B0200D4D5E6434B0135FB
:101870001940C9E5380069E61E004746203EF7409A
:10188000BC46202B04D04026F31A46469E403243E5
:10189000170063467A1E97411F4302E6364DAE425B
:1018A000CAD080252D045B422943A6E70843411E88
:1018B0008841A6E6002B00D148E6871A4346B84285
:1018C000B641CB1A76429E1B33024BD5171A4346BC
:1018D000BA429241591A5242891A072264463A4042
:1018E00092E501430F00791E8F419DE71C000F0018
:1018F000203CE740202B03D04024E31A99400843C2
:10190000411E884138437CE60022002425E6171A50
:101910004346BA429241591A5242891A64463500E6
:1019200043E541461000144D10E6802200241203C6
:1019300080E61D000F00203DEF40BC46202B03D069
:101940004025EB1A9940084307006346781E8741FB
:101950001F4369E7871897429B4141445B42C9187E
:101960003500A3E53B003343CED0072231003A4097
:1019700052E600231A00F4E5FF070000FFFF7FFF97
:10198000F0B55746DE464E464546E0B5834607006D
:101990000E03480085B092461C00360B400DCD0F5B
:1019A000002800D19DE0954B984239D08023F60065
:1019B0001B041E43924A7B0F33439946944603000F
:1019C0006344009300230026FF00029323031B0BB4
:1019D00098466300E40F52465B0D019400D1B3E0DA
:1019E00086498B4200D19EE04246D10080221204FB
:1019F0000A435146490F11438B46814952468C4652
:101A000000996344CB1A0021D20000932B0063405D
:101A10009A460F2E00D905E17A4BB6009B599F4696
:101A20005B463343994600D0B8E0022308260027DE
:101A300000900293CAE7CB463A0002990195019BB8
:101A40009A46022927D0032900D180E2012944D0F7
:101A50006D49009B8C4663441C00002C38DD530705
:101A600000D013E2D2085B46DB0109D55946674B2B
:101A700019408B468021C9008C46009B63441C00A2
:101A8000634B9C4207DC5B4664055F075B021743C0
:101A90001B0B620D02E000230027584A00211B03A4
:101AA0001C0B0B0D1B05234314055A4A3800134029
:101AB0001C4353466400DB0764081C43210005B047
:101AC0003CBC90469946A246AB46F0BD012252422C
:101AD00001231B1B382B00DCADE100220023002773
:101AE000DCE75B46334399465ED0002E00D18AE1A5
:101AF000300000F0C9FE03000B3B1C2B00DD7BE136
:101B00001D22D31A5A460100DA4008398E401300CC
:101B10005F46334399468F403F4B00261B1A009384
:101B20000023029352E7414653460B433B499B46F1
:101B30008C46009B634400935B46002B3BD1022301
:101B400000221E43022161E7434613439B4637D0E0
:101B50004346002B00D162E1404600F095FE0300B1
:101B60000B3B1C2B00DD53E102004146083A91403B
:101B700088461D21CB1A5146D9400B0041460B43E4
:101B80009B46534693401A00009B25499C4660445F
:101B900003008C4663440093002137E70323B146DA
:101BA00000900C26029311E70023009301330426D2
:101BB000002702930AE70323C3461E43032125E7B8
:101BC00001331E430022012120E700239A4680238F
:101BD00000271B03094A61E7802349461B0319427A
:101BE00000D1E2E05946194200D0DEE00B431B036E
:101BF00017001B0BA246014A50E7C046FF07000032
:101C000001FCFFFF306C0008FF030000FFFFFFFE38
:101C1000FE070000FFFF0F800DFCFFFF01F8FFFF34
:101C2000F3030000D94500D9CBE000D1C6E03C0069
:101C300048460027009B013B00935B46160E1B02A3
:101C40001E431302984633041B0C9946310C019134
:101C5000FEF7E8FA4A4642430B04210C05001943FB
:101C60008A4207D98919013D8E4203D88A4201D997
:101C7000851E8919881A0199FEF7D4FA09048C4641
:101C80004A46210464464243090C030021438A4228
:101C900004D98919013B8E4200D8F1E02D041D437F
:101CA000AB464346891A4246280C12041D0C5B467B
:101CB000140C22001B041B0C5A4303946B43444333
:101CC000029568431B19150CEB189C4203D980241C
:101CD0006402A44660441C0C15041B042D0C20183F
:101CE0005D19814277D373D00C1AA24A7D1BAF4293
:101CF000BF419446009B7F426344E01B1C00864228
:101D000000D1DBE00199FEF78DFA4A4642430B040D
:101D1000290C070019438A4207D98919013F8E42CD
:101D200003D88A4201D9871E8919881A0199FEF7BA
:101D300079FA09044A46894629044D464243090C6A
:101D4000030029438A4207D98919013B8E4203D8EF
:101D50008A4201D9831E89193F04891A3A00039FD8
:101D60001A43380013041B0C584381460298150C83
:101D70006F43434345434846000C8446DB196344A4
:101D80009F4203D9802040028446654448461F0C88
:101D900000041B04000C7D191818A94200D284E02D
:101DA00000D17FE001231A4357E680234A461B03F4
:101DB00013431B031B0BAA466F4A6FE6BA4200D9B6
:101DC00035E74B46DC0758087B081C43FF0734E720
:101DD0000024AF4289D247444745A4415B46644250
:101DE000A4196418013BA6421ED2A0426DD800D1AE
:101DF000B6E0241A9B4678E703005A46283B9A40EF
:101E00000027914688E6584600F03EFD203072E6F5
:101E100003005246283B9A4093460022B4E65046BF
:101E200000F032FD20309AE6A642E2D1B845DCD976
:101E3000341A9B4659E71F2B65DC504C0099A44689
:101E40005C46614408008C4011008240D940501E1D
:101E500082410C4314435A46DA401300620709D00A
:101E60000F222240042A05D02200141D94428941E9
:101E700049425B181A0262D50122002300270DE6B1
:101E80008A4200D80AE7831E891907E70F23134007
:101E9000042B00D1E6E5171D9742924153429B4423
:101EA000FA08E0E5002800D1D7E57118531EB142C9
:101EB00027D3A94215D358D01A0073E7002B00DCB2
:101EC00004E6012300229B44CDE502234744474515
:101ED00089415B429C46494289190C19E344241A02
:101EE00003E743465F0047459B41B8465B429E1966
:101EF000023A8919A94200D054E7404500D051E781
:101F0000ABE51A00F6E71F215F4649420C1BE7408C
:101F1000202B07D01A49009B8C46634418005B466F
:101F200083401A43501E82413A430727002317403B
:101F300009D00F21002311401400042995D122005B
:101F40005F075B021B0BD20817430022A6E5802324
:101F500059461B030B431B0317001B0B064A9DE549
:101F6000BD42B2D89B460024BFE68045B9D31A00D3
:101F7000C3E7C046FF030000FF0700001E04000087
:101F80003E040000F0B54F464646D6468446C0B5EE
:101F90008046194E18030F034D00000B5C0082466B
:101FA0003F0B6D0DC90F9146640DDB0F0120B5424B
:101FB0000AD0B44203D0A54201D157450CD01CBC75
:101FC00090469946A246F0BD66463E43F7D1AC42E4
:101FD000F5D154461443F2D10120C845EFD19942BE
:101FE00007D0002DEBD163461F433800471EB84190
:101FF000E5E70020E3E7C046FF070000F0B54F46E5
:102000004646D6464D00C0B50E03C90F8A462C4938
:102010001F035C008046360B6D0D91463F0B640D2F
:10202000DB0F8D421ED08C4216D0002D1ED13043C6
:102030008446002C01D13A4323D06246002A1AD0AC
:102040009A4529D0514602200139084001381CBC6C
:1020500090469946A246F0BD39001143E5D00220D2
:102060004042F4E73043FAD1AC420FD0002C0FD1FC
:102070003A43E7D00CE00122013B934318000130C2
:10208000E5E763460020002BE1D0DBE73A43E6D1E9
:102090009A45D7D1A542D5DCA54205DBBE42D1D8B1
:1020A00008D00020BE42D2D25046012301389843C6
:1020B0000130CCE7C845C5D80020C845F4D3C6E7F1
:1020C000FF070000F0B54F464646D6464D00C0B566
:1020D0000E03C90F8A462E491F035C008046360B4B
:1020E0006D0D91463F0B640DDB0F8D4218D08C4275
:1020F00011D0002D18D130438446002C1ED13A4314
:102100001CD163460020002B30D0514602200139FB
:10211000084001382AE039001143EAD0022025E0C6
:102120003043FBD1AC4226D0002C26D13A4324D1F7
:102130005146022001390840013817E06246002A62
:102140000FD09A45E1D1A54205DBBE42DDD819D0BA
:102150000020BE420AD25046012301389843013084
:1021600004E00122013B9343180001301CBC90465F
:102170009946A246F0BD3A43D0D19A45C5D1A54271
:10218000C3DCE0E7C845C0D80020C845E3D3EDE78D
:10219000FF070000F0B55746DE464E464546E0B51F
:1021A000834606000F03480087B092461D003F0B90
:1021B000400DCC0F002800D16FE0DE4B984238D0A4
:1021C0008023FF001B041F43730F3B430193DA4B33
:1021D0000027994600239B46F60081442B036900A3
:1021E0001B0B52469846490DED0F002900D185E0A2
:1021F000D04B994200D173E04346DA0080231B04A0
:1022000013435246CC48520F844613435246002093
:102210006144D20089442100694000918C4601212B
:1022200049448A460F2F00D990E0C449BF00CF59D6
:10223000BF465B463B43019300D06AE10223082777
:10224000002681469B46C9E732005846019B6146FD
:102250000091022800D175E0032800D1FEE1012899
:1022600000D02CE100230027002600253F032A0D83
:102270003F0BB34812053A4302401B051343009A33
:102280005B00D1075B080B433000190007B03CBC72
:1022900090469946A246AB46F0BD5B463B43019350
:1022A00000D12FE1002F00D1A5E1380000F0ECFAB9
:1022B00003000B3B1C2B00DD96E11D22D31A5A466E
:1022C0000100DA405E4608398F4013008E403B43E0
:1022D00001939C4B00271B1A994600239B467DE7E0
:1022E000414653460B4393498C46E144002B00D0B2
:1022F0001AE102220220174300228CE7134300D187
:102300000DE14346002B00D181E1404600F0BCFACC
:1023100002000B3A1C2A00DD72E101004346083935
:102320008B4098461D239A1A5346D3401A004346C1
:10233000134352468A404946081A824989468144D5
:10234000002068E77B4B002700268EE7140C120460
:10235000120C1100370C3604350C794328008C46DA
:102360002E0060436044834656432100300C804673
:102370005846794340440291844506D988468021D5
:1023800049028C46E044414602913604010C360C69
:1023900000048B4681191E0C1B041B0C03911900B1
:1023A00079438C46280075436544A8465843050C7C
:1023B00045447743A94203D9802149028C466744AA
:1023C000290C8C4639000004000C2D042D186144A2
:1023D000AB4405915946049101990F043F0C080C38
:1023E000390051434243904602008C46090C8B460B
:1023F00062437C4344445C44A04503D980214902A4
:1024000088464244210C884661460904090C8C46E2
:1024100039005943434370437E430F0CF61824049C
:10242000BE19644442448C46B34203D980235B0204
:1024300098464044029B61469846049B37044344B7
:102440009B46AB45AD416B420D0405992D0C8C4666
:102450007F196744FD18A8465D462D19A542A44181
:1024600093466442A446C344DC448F42BF4198452E
:102470009B4193459241A445A4415B427F421F4347
:10248000360C52426442BF192243BF1862463818C4
:102490004302D20D039913436A020A43501E82413C
:1024A0006146ED0D2A434E023243D90100D4B3E018
:1024B0000126500832400243DE0732435B08224CBB
:1024C0005444002C62DD510709D00F20104004282D
:1024D00005D0101D9042924152429B180200D90132
:1024E00004D580241948E400034054441848844229
:1024F00000DD27E75E075B02D2081F0B630516436A
:102500005B0DB2E6002399460133042700269B4663
:1025100064E60323019781460C279B465EE6012271
:1025200001201743002276E6032303201F4343467E
:1025300071E6C046FF07000001FCFFFF706C000859
:10254000FFFF0F800DFCFFFFFF030000FFFFFFFEFA
:10255000FE0700000023802700933F030026434B23
:1025600083E6019B3200A446584670E6AC466EE610
:10257000802701993F0339422DD03B422BD11F4385
:102580003F033F0B00951600384B6EE601252D1BCF
:10259000382D00DD66E61F2D40DC35481C00504418
:1025A000160082408440EE40501E82413443144362
:1025B000EB40620709D00F222240042A05D02200F6
:1025C000141D9442804140421B181A023ED501233B
:1025D0000027002649E68027019B3F031F433F0356
:1025E0003F0B0094214B40E603005A46283B9A409B
:1025F000002601926DE6584600F046F9203057E675
:1026000003005246283B9A401300002293E65046AE
:1026100000F03AF920307BE6CA4650E71F201E0042
:102620004042041BE640202D03D0124C5444A340EA
:102630001A43501E8241324307260027164009D014
:102640000F200023104014000428B9D122005E0797
:102650005B021F0BD2081643002306E680273F03C8
:102660001F433F033F0B1600004BFEE5FF07000032
:102670001E0400003E04000010B5041E25D000F02A
:1026800003F9144B1B1A5B055B0D0A2812DD0B388E
:10269000844000222403240B0021100024030A0D8F
:1026A000240B120522430C4C1B05224013435B00F4
:1026B000590810BD02002100153291400A000B217B
:1026C000081AC4402403240BE6E700230024002258
:1026D000E2E7C0461E040000FFFF0F804100090E24
:1026E0004B1C70B5DBB24602750AC40F012B14DD1A
:1026F000E0239B006D07360BCB1800210A0D280044
:1027000012051C4D32435B052A405B0813435B00F6
:10271000E4075B082343190070BD002914D1002D84
:102720001ED0280000F0B0F80A281CDC0B232A0079
:102730001B1ADA40030015339D400F4B12031B1A7E
:102740005B05160B5B0DD8E7002D06D0320B8026FB
:1027500036036D071643094BCFE7084B0026CCE73D
:1027600000230026C9E703002A000B3B9A400025FE
:10277000E3E7C046FFFF0F8089030000FF0700006A
:10278000F0B54C00640D0B03621C5B0A460F52054A
:10279000C90F1E43C500520D012A29DD374BE7182A
:1027A000FE2F1CDC002F3BDD8001431E98410722D9
:1027B000F3006D0F03432B431A40002A04D00F226D
:1027C0001A40042A00D004338022D2041A4024D0B4
:1027D0000137FAB2FF2F02D09B01580A01E0FF2215
:1027E00000204002D205400AC90710430843F0BD4B
:1027F0003543002C04D1002D0AD100220020F0E73F
:10280000002DECD08020C0033043FF22E9E70024F4
:1028100000235B02580AE2B2E3E7DB083C00F8E77A
:102820003B001733F3DB80231B0433431E26F61BC8
:102830001F2E14DD02225242D71B1A00FA40170045
:10284000202E04D00E4A94466444A3401D432B001E
:102850005D1EAB4107223B431A400027ADE7094A02
:102860002800A218954093406C1EA541F040072215
:102870002B4303431A4000279FE7C04680FCFFFF1D
:10288000A2FCFFFF82FCFFFF1C2101231B049842D6
:1028900001D3000C10391B0A984201D3000A0839F1
:1028A0001B09984201D30009043902A2105C4018A8
:1028B0007047C0460403020201010101000000004C
:1028C000000000004021084A10B5136800200B43A7
:1028D000136003F01BFC041E02D00124200010BD75
:1028E00003F040FBFAE7C04600200240024A1368AA
:1028F000013313607047C046B8160020014B1868BA
:102900007047C046B816002070B50400FFF7F6FF08
:10291000631C5A1E93410500E418FFF7EFFF401BAC
:10292000A042FAD370BDC046F8B5041E00D1A7E09E
:10293000436D002B00D199E0636DDB0600D58CE080
:10294000042123689A68114000D086E0626D6448D3
:1029500002400630FF30024362650322986802405D
:10296000012A00D18EE080256068ED054200520802
:10297000AA4200D18BE080221206904200D186E06C
:102980001A69584E920092081A61574A15683540E4
:1029900015601568284310601820DA688243DA60F1
:1029A000DA68A0680243DA604F48504D02682A4056
:1029B0000260626B056852062A43026080229868B2
:1029C0005205104202D1986802439A60DA6848487A
:1029D000E5680240DA602269DE68022A00D104213B
:1029E0002022276BA05CA2693D4392032A43E5693C
:1029F000ED032A4345032A432C25655D6D002A43D8
:102A000032430A43C221DA60626AFF318A4204D04B
:102A1000A56AD9682A430A43DA602122A25C012A06
:102A20004DD0E16B01293AD0012219690A4202D046
:102A300019699143196107215A6900208A435A6133
:102A40005A69A16B0A435A6100230322A365636D8F
:102A50009343023A1343636507E01022636D01203C
:102A60001343636500225023E254F8BD502283656E
:102A7000835403F08BFA636DDB0600D460E7ECE768
:102A80000120F2E71868024200D08DE76BE71A696F
:102A9000920092081A611A69104318617CE71A695A
:102AA0001448656C02401A61226C18692A43A56CAF
:102AB0002A4302431A611A6911431961BBE70028CE
:102AC00005D18022D96852020A43DA60A9E72020A2
:102AD000616D01436165A16D0A43A265A1E7C0462E
:102AE000FDFEFFFFFFFFC3FF08270140FFFFFFFDC3
:102AF0001902FEFF03FCFFFF70B5036882B09A68FD
:102B00000400520747D45022815C012943D001219F
:102B10008154C269012A13D1626D2B4900201140F2
:102B2000802252000A43626550210022A26562544D
:102B30001C321A609A684C390A439A6002B070BD20
:102B4000032299680A40012A31D099681F4A11422C
:102B500023D101219A680A439A601D4B1D491868C8
:102B6000FDF7DAFA0190019B002B05D0019B013B98
:102B70000193019B002BF9D1FFF7C0FE0125060050
:102B800004E0FFF7BBFE801B0A2814D823681A68EC
:102B90001542F6D0C0E70220D0E71022636D012075
:102BA00013436365A36D0F3A1343A365C6E7196822
:102BB0000A42CAD0B0E71022636D01201343636557
:102BC000A36D1D43A565B9E7FEF0FFFF1700008068
:102BD0002C00002040420F00502370B5C25C04005E
:102BE000012A28D00122C2540368033299680A429C
:102BF00010D099680A4220D1FFF780FE0425060014
:102C000004E0FFF77BFE801B0A282FD823689A6810
:102C10001542F6D103219A680A40012A15D00020F6
:102C2000636D264A13400432FF3213436365502319
:102C30000022E25400E0022070BD9A689207DBD4C3
:102C400010219A680A439A60D6E718680242E6D0D3
:102C500005209D682840012812D01021636D0120B5
:102C60000B436365A36D1A43A265E0E71022636D11
:102C7000012013436365A36D0F3A1343A365D6E7A1
:102C80009A68013002439A601960FFF737FE012508
:102C9000060004E0FFF732FE801B0A2804D82368F0
:102CA0009B681D42F6D1BAE71022636D01201343E1
:102CB0006365A36D1D43A565B9E7C046FEFEFFFF32
:102CC000F8B5436905000E00082B4FD003680C24AB
:102CD000DB68DB0741D4FFF711FE07002A68731C8D
:102CE00028D113681C42FCD08023696D9B000B43E4
:102CF0006B65C023D1681B01194214D12023E95C04
:102D0000002910D1116809070DD5916849072FD402
:102D10000C2153688B4353606B6D19490B40043190
:102D2000FF310B436B65AB690020002B01D10C33E5
:102D30001360F8BD13681C42D6D1002E04D0FFF7F3
:102D4000DDFDC01BB042C9D904226B6D03201343C3
:102D50006B6500225023EA54EBE72022436D1343B6
:102D6000436500225023C2540120E2E70824B2E761
:102D7000696D0B4301216B65AB6D0B43AB65D2E70E
:102D8000FEFEFFFF0368186C7047C0467047C046E0
:102D90007047C0460422036870B5196804000A42EF
:102DA0004ED059680A424BD0626DD20604D48022BC
:102DB000616D92000A436265C022D9681201114216
:102DC00014D12022A15C002910D1196809070DD562
:102DD0009968490749D40C215A688A435A60636D3F
:102DE000264A13400432FF3213436365200002F089
:102DF00081FAA369012B36D00C2223681A60802542
:102E00001A68154202D05A68154221D11022196859
:102E10000A4214D059680A4211D0226B002A02D00B
:102E2000DA68D20709D50221A26D20000A43A26503
:102E300010221A60FFF7ACFF236810221A6070BDE1
:102E4000082219680A42DAD059680A42D7D0ABE79B
:102E50008023626D5B02134363652000FFF796FFDA
:102E600023681D60D2E72368C9E7636D1A43626572
:102E70000122A36D1343A365B8E7C046FEFEFFFF22
:102E8000502370B5C25C82B00400012A42D00122F6
:102E9000C25402689068400733D480230D68274EDF
:102EA00049686803DB02400B2B40B14234D0916A81
:102EB00008439062002B17D08023214A1B0411681D
:102EC0000B4313601F4B20491868FDF725F9830059
:102ED000181840000190019B002B05D0019B013B7D
:102EE0000193019B002BF9D1AB0305D58023144A34
:102EF000DB0311680B431360502300220020E254CF
:102F000006E02021626D01200A4362650022E2543E
:102F100002B070BD0220FBE7916A81439162002BF1
:102F200004D0074A094913680B401360AB03E3D58B
:102F3000034A074913680B401360DDE701100000E6
:102F4000082701402C00002040420F00FFFF7FFFB8
:102F5000FFFFBFFF502370B5C25C0400012A48D0B8
:102F60000122C2540368023299680A40012A0BD137
:102F700019680A4208D0436D1F321343436501208C
:102F800050230022E25470BD626D1B490A40063195
:102F9000FF310A436265DE68DA6801318A43DA602C
:102FA0008022996812060A439A60FFF7A7FC050081
:102FB00004E0FFF7A3FC401B0A280FD823689A6897
:102FC000002AF6DB0322D96816400E43DE60636DEB
:102FD00000209343023A13436365D1E71222636DE5
:102FE00001209343023A1343636500225023E254C5
:102FF000C9E70220C7E7C046FDFEFFFFFF2203230B
:1030000030B51400C5B22B40DB009C4089010A405A
:10301000E4439A4000280BDB0C4B80089C46C023FD
:10302000800060449B00C1580C402243C25030BD18
:103030000F2307492B408C46083B9B089B006344A9
:10304000D9690C402243DA61F1E7C04600E100E0B3
:1030500000ED00E01F2318401E3B8340014A13602F
:103060007047C04600E100E0BFF34F8F034B044AB6
:10307000DA60BFF34F8FC046FDE7C04600ED00E0C9
:103080000400FA05F0B5DE4657464E464546E0B523
:103090000B6883B09C46002B00D184E001239A4644
:1030A000684B002298466346019100935446944031
:1030B000009D254073D0019B10275B681900B94320
:1030C0008946022900D175E051008C4603216646ED
:1030D000B14001267642B346D9444E46C943012E3B
:1030E00000D887E0046867460C40A14603241C40D2
:1030F000BC404F463C4367460460C4680C4001999D
:103100008968B9402143C160802149050B4246D0FE
:10311000564603274C4C1740616B314361634B4C5F
:10312000BE00A4460F27910889006144B740B44609
:10313000A0268C68F605BC43B04215D0444EB04280
:1031400000D175E0434EB1460226484509D0424EB3
:10315000B04200D171E0414EB1460526484500D04D
:1031600006266746BE4034438C604146EC430968FE
:10317000DE035BD421404646316071689E0353D420
:10318000214046467160B168DE024BD4214046467C
:10319000B160F1689B0243D421404346D960009B53
:1031A0000132D34082D103B03CBC90469946A2463E
:1031B000AB46F0BDD108890041180E6AB14607261A
:1031C00037001740BE000F27B740BB46B4464F46F6
:1031D0005E46B743019EB94637696646B740BC466E
:1031E0004F46664637430F6251008C4603216646C0
:1031F000B140C9438768019E0F40BB46F7686646E9
:10320000B740B9465F464E46374387604668370049
:103210005646A7431C09344094403C43446061E750
:103220002943BAE72943B2E72943AAE72943A2E79A
:1032300056466746BE40344396E703266746BE407F
:10324000344391E7000401400010024000000140B7
:103250000004005000080050000C0050001C0050FA
:1032600000690840411E8841C0B27047002A01D160
:10327000816270478161FCE7F0B5D6464F4646460D
:10328000C0B5040082B0002800D11FE10C258026C3
:10329000C94B7602DA681540DA6803681640DA0727
:1032A00033D5082D00D108E10C2D00D102E180209A
:1032B00061684002814200D171E1A022D2029142B4
:1032C00000D15DE2BC4FBD4B3A681A403A603B68A2
:1032D000BB4A03400193019B3B6813403B600029BC
:1032E00000D060E1FFF70AFB80239B0281469846ED
:1032F00006E0FFF703FB4B46C01A642800D9AAE199
:1033000042463B681342F4D123689A0700D5ABE0EC
:10331000DA062AD5002D00D1DFE0A369A64E002BE6
:1033200000D1C4E1802332685B0013433360FFF7B0
:10333000E5FA80278046BF0006E0FFF7DFFA434644
:10334000C01A022800D986E133683B42F5D0736881
:103350009C4A1340226A134373607268E369120245
:103360001B06120A1343736023681A0719D5636991
:10337000914E002B00D185E10122336D134333655B
:10338000FFF7BCFA02230700984605E0FFF7B6FAFC
:10339000C01B022800D95EE14246336D1A42F5D0C7
:1033A00023685B0741D580230020834A5B05916B2E
:1033B0008246194204D1916B0B43936301239A46D1
:1033C0008027814E7F0033683B4200D133E1802269
:1033D000A3685200934200D1DCE1002B00D10FE141
:1033E000A021C9008B4200D104E2734B77491A6DCA
:1033F0000A401A651A6D76490A401A65FFF77EFA87
:103400008026744B81466C4FB600984606E0FFF765
:1034100075FA4B46C01A404500D91CE13B6D33425A
:10342000F5D05346012B00D1A4E1636A002B19D0DB
:103430000C2D00D1B3E1022B00D167E15E4C664A4E
:103440002368802513402360FFF758FAAD04060077
:1034500005E0FFF753FA801B022800D9FBE0236840
:103460002B42F6D1002032E0E368042D61D00C2D10
:103470005DD0514E002B00D1EFE0092132680427C6
:103480008A4313433360FFF739FA804606E0FFF7BB
:1034900035FA4346C01A022800D9DCE033681F42DF
:1034A000F5D0726823694D491B020A4013437360CB
:1034B00023682DE7002E00D1F9E63F4A12689203F7
:1034C00000D422E76268002A00D01EE7012002B083
:1034D0001CBC90469946A246F0BD374B1B689B0525
:1034E00002D5A369002BF1D0334A36485168236ACC
:1034F0000140194351605068E1690002000A090661
:1035000001435160D16880225B0B013312029A4063
:1035100013000A063249120F8A5C0020D340314A58
:10352000136002F0F3FD0028D1D123681DE7002EBF
:103530009FD1214A1268520701D5002BC6D01E4ADE
:1035400021695068254E090230400143092051602D
:10355000116881430B4313600C23D1680B40082B87
:1035600000D145E10C2B00D1B7E0042B00D133E1B1
:103570008020536800021B045B0F013398400E4B00
:10358000174ADB681B061B0FD35CD840154B18602D
:10359000002002F0BBFD002899D12368B8E6064A56
:1035A00013680B431360FFF7A9F98027024B81468C
:1035B0009846BF021EE0C04600100240FFFFFEFF1B
:1035C000FFFFFBFFFF1FFFFF00700040FFFEFFFF3C
:1035D000FFFBFFFF88130000FFFFFFFEFFE0FFFF80
:1035E000406D00082C000020FFF788F94B46C01AF8
:1035F000642830D843461B683B42F5D0236884E6F4
:103600008B4E8C4A336D802713403365336D8A4A65
:10361000BF0013403365FFF771F9884B8146984628
:1036200005E0FFF76BF94B46C01A404513D8336DE0
:103630003B42F6D1F5E633683B433360FFF75EF972
:10364000804633683B4200D0C1E6FFF757F9434656
:10365000C01A6428F5D9032039E70122336893435F
:103660003360FFF74BF904230700984604E0FFF7A7
:1036700045F9C01B0228EED8424633681A42F6D1FB
:10368000236845E60122336D93433365FFF736F92E
:1036900002230700984604E0FFF730F9C01B022818
:1036A000D9D84246336D1A42F6D1236879E6336899
:1036B000604A13403360FFF721F980239B00070025
:1036C000984604E0FFF71AF9C01B0228C3D8424607
:1036D00033681342F6D1236847E68B0258481B0F24
:1036E000C65C0902D368890F0131DB0300D58BE08A
:1036F0001368DB0600D491E073019B1B9801C01A8C
:10370000C00080190002FCF707FD38E7484D4D4A1C
:103710002B68802613402B60FFF7F0F8B6040700F3
:1037200004E0FFF7EBF8C01B022894D82B68334263
:10373000F7D1E16AA36AEA680B4343490A4013439D
:10374000226B80241343EB6080232A685B041343BD
:103750002B60FFF7D3F8364D0600A40405E0FFF711
:10376000CDF8801B022800D975E72B682342F6D0DC
:103770000020ACE62E4A3549936B0B40936354E628
:1037800080232B4ADB0211680B4313601368034349
:10379000136008E7264A116D0B4313652EE6012BD3
:1037A00000D193E6224BA16ADA6880235B021340C2
:1037B00001208B4200D08AE6F023E16A9B0313408C
:1037C0008B4200D083E6C02000040240206B101A18
:1037D000421E9041C0B27AE6136807301840434257
:1037E00058411B4B404218401A4B9C466044C6E669
:1037F0001948C4E60E4B0139186DFF3901431965AC
:10380000196D0A431A65F9E57001801B8301181AC6
:10381000C00080194002FCF77FFCB0E673019B1BDF
:103820009801C01AC00080198002FCF775FCA6E65A
:1038300000100240FFFEFFFFFFFBFFFF88130000A8
:10384000586D0008FFFFFFFEFFFF02FFFFFFFFEFC5
:10385000001BB70000093D0000127A00F8B5CE4603
:103860004746040080B50D0000280DD001237E4995
:103870000A681A40AA420CD20A689A432A430A608C
:103880000A681340AB4204D001200CBC9046994614
:10389000F8BD23689A0706D5F0207449CA688243A8
:1038A000A0680243CA60DB072DD5704A63681268BE
:1038B000022B66D0032B00D188E0012B00D1B5E0AC
:1038C0009205E1D50321694EF2688A431343F36000
:1038D000FFF714F863680700022B00D196E0032B72
:1038E00000D1A7E0012B7FD00C239846604B99466E
:1038F00005E0FFF703F8C01B484500D984E04246C5
:10390000F3681A42F5D10121574A13680B40AB42C4
:1039100005D913688B43136013681942B4D1236827
:103920005A0706D551495348CA680240E068024325
:10393000CA601B0707D54D492369CA684E48DB009A
:1039400002401343CB600C23484AD1680B40082B3C
:103950001AD00C2B23D0042B18D0802053680002DF
:103960001B045B0F01339840404B444ADB681B0645
:103970001B0FD35CD840424B1860002002F0C6FBFE
:1039800083E792039ED47FE73E48EDE710683E4B05
:10399000C006C01718403D4B9C466044E4E78B02CC
:1039A0003B481B0FC45C0902D368890F0131DB035C
:1039B00010D41368DB064DD563011B1B9801C01A98
:1039C000C00000190002FCF7A7FBCDE7920100D56B
:1039D00078E759E76001001B8301181AC00000193D
:1039E0004002FCF799FBBFE70B339846204B994602
:1039F00004E0FEF783FFC01B484505D84246F36844
:103A00001340042BF5D17EE703203EE70A339846A6
:103A1000174B994604E0FEF771FFC01B4845F3D8E9
:103A20004246F3681340082BF5D16CE7520700D5E6
:103A300048E729E7093398460D4B994604E0FEF71D
:103A40005DFFC01B4845DFD84246F36813400C2B8E
:103A5000F5D158E763011B1B9801C01AC00000197B
:103A60008002FCF759FB7FE7002002400010024073
:103A700088130000FFF8FFFFFFC7FFFF406D00083D
:103A80002C00002000127A0000E548FF0024F4001A
:103A9000586D0008044B054ADB685B055B0FD35C7F
:103AA000034A1068D840704700100240506D00086B
:103AB0002C0000200F230D4A036030B5D4680C3B66
:103AC00023404360F023E025D468ED002340836069
:103AD000D4682C40C460D368DB082B400361044BDE
:103AE0001A68012313400B6030BDC046001002402D
:103AF0000020024010B5041E30D03923C35CDBB275
:103B0000002B1DD0392302228021E2542268C905EE
:103B100013688A4219D012498A4216D011498A4242
:103B200013D080218B43616900200B431360E3684D
:103B3000D36263689362012353613922A35410BD99
:103B40003822835402F054FADCE770218B43A168D9
:103B50000B4305490B4021690B43E2E70120EEE7E7
:103B60000008014000140140FFFCFFFF0121036831
:103B7000DA680A43DA60072298680240062A02D00F
:103B80001A680A431A6000207047C0467047C04652
:103B900010B5041E30D03923C35CDBB2002B1DD01E
:103BA000392302228021E2542268C90513688A421F
:103BB00019D012498A4216D011498A4213D0802165
:103BC0008B43616900200B431360E368D362636831
:103BD0009362012353613922A35410BD38228354C8
:103BE000FFF7D4FFDCE770218B43A1680B43054945
:103BF0000B4021690B43E2E70120EEE7000801409A
:103C000000140140FFFCFFFF03681F220120114048
:103C100002008A40196A91431962196A0A431A62BA
:103C2000072299680A40062A02D01A6802431A60DD
:103C3000002070473823F0B5C45C012C5BD001250F
:103C40000224C5540133C454042A00D177E030D98A
:103C5000082A52D00C2A24D103684C4C1A6A4C4DC5
:103C600022401A621A6A5E68DC6925400C682402E8
:103C70002C43484D15408A685E601203DC614C6835
:103C80002A431C641A628022DC6912012243DA6131
:103C9000DA69414C2240DA61CA68DC6912022243C7
:103CA000DA6139230122C2540022013BC2540020B0
:103CB000F0BD002AF5D1732703681A6AAA431A6275
:103CC0001A6A5E689D69A2438C68BD430F682243EF
:103CD0004C683D435E609D615C6308241A629A698A
:103CE000C96822439A619A69043CA2439A619A691D
:103CF0000A439A61D5E70220DAE773260368274D65
:103D00001C6A2C401C621C6A5F68DD69B5430E6842
:103D10003543234E26408C685F602402DD614D6888
:103D20003443DD631C62DC69C96822430424DA6120
:103D3000DA69A243DA61DA690A43DA61B1E7102489
:103D40000368134D1A6AA2431A621A6A5E689C6974
:103D500025400C6824022C432025AA4315008A68BC
:103D60005E6012019C614C682A439C631A62802247
:103D70009C69120122439A619A69074C22409A6118
:103D8000CA689C69120222439A618AE7FFEFFFFF2B
:103D9000FF8CFFFFFFDFFFFFFFFBFFFFFFFEFFFFCB
:103DA000FFFDFFFF382370B5C25C012A58D0012403
:103DB0000222C4540133C25403684B4D9A682A400E
:103DC0009A600A68402A00D174E04BD9602A2ED04C
:103DD00057D9702A1BD08024A401A2420FD19A681F
:103DE000424C4D6814408A68C9682A4309020A4354
:103DF00022439A6080229968D2010A439A6039234B
:103E00000122C2540022013BC254002070BD9A68B6
:103E1000364C4D6814408A68C9682A4309020A432F
:103E2000772122439A609A680A439A60E7E710254F
:103E30001C6A4A68AC43C9681C629D692C4E090320
:103E400035402943A0251C6A99617021AC431201B9
:103E500022431A629A688A4309390A439A60CEE774
:103E60000220D3E7102A04D03BD9202A01D0302ADF
:103E7000C5D170249968A143693C22430A439A60E2
:103E8000BDE7502ABBD14D68CA68196A1E6A120183
:103E9000A6431E62F0269C69B44322430A24A14330
:103EA00029439A61196270219A688A4319390A4331
:103EB0009A60A4E74D68CA68196A1E6A1201A6438F
:103EC0001E62F0269C69B44322430A24A14329437D
:103ED0009A61196270219A688A4329390A439A6063
:103EE0008DE7002AC5D08AE78800FFFFFF00FFFFAB
:103EF000FF0FFFFF7047C0467047C0467047C0467F
:103F00007047C0460222036810B5196904000A42CE
:103F100002D0D9680A4254D1042219690A4202D057
:103F2000D9680A423AD1082219690A4202D0D968EE
:103F30000A4225D1102219690A4202D0D9680A42E0
:103F40000ED1012219690A4202D0D9680A424ED123
:103F5000402219690A4202D0D9680A4241D110BDF3
:103F6000213A1A6119322276DA69C0239B002000B7
:103F70001A4243D0FFF7C0FF002323762368E0E70F
:103F8000113A1A61DB690D32227620009B0741D07D
:103F9000FFF7B2FF002323762368CBE7093A1A61C3
:103FA000073222769A69C0239B0020001A422ED144
:103FB000FFF7A0FF2000FFF7A1FF0023237623686F
:103FC000B1E7053A1A619B69043202769B071BD15F
:103FD000FFF790FF2000FFF791FF0023237623686F
:103FE0009AE7813A1A612000FFF78AFFB7E7033AA0
:103FF0001A61200001F026FE2368A9E7FFF77AFF87
:104000002000FFF77BFFB7E7FFF776FFE5E7FFF755
:1040100073FFD2E7FFF76EFF2000FFF76FFFB9E7EE
:10402000F0B53825435D012B15D0392602237027C2
:10403000046883556268A368BA430F6849683A43C5
:104040008027BB430B436260A36001238355002399
:1040500043550020F0BD0220FCE7C04610B500F03B
:104060005DFC002010BDC046F0B545690B0087B06F
:104070004668016802690827C45F002D0DD0806979
:1040800000280AD0842C18D00334029001950094A3
:10409000300000F0BDFA07B0F0BD92B2842C0AD017
:1040A000033405A801900094300000F0D5FA0128EF
:1040B00005D10598EFE70024F3E70024E5E70020A9
:1040C000E9E7C04610B5002800D1013000F0A2FD9C
:1040D000002010BD0300012208334360C360036168
:1040E00000235242826003607047C0460023036190
:1040F0007047C04643689A684B608A609A6851600E
:10410000996003680861013303607047020030B5AD
:104110000C680832631C01D10DE01A0053681D6859
:10412000A542FAD94B60996003688A6001335160F7
:104130000861036030BD02695368F3E74268816833
:104140000369916081684A605A68824200D159606F
:10415000002202611A68013A1A6018687047C04666
:10416000F0B5DE4657464E4645460368E0B5002B9F
:1041700000D19DE00500436808355A684260AA42B4
:1041800000D19DE035239C46013398460133994682
:104190000133D76834269A4682E0D3689C5DA346F3
:1041A0000C785C457AD1002C00D182E064461C5D1D
:1041B000A3464C785C4571D1002C7AD044461C5DF6
:1041C000A3468C785C4569D1002C72D04C461C5DAE
:1041D000A346CC785C4561D1002C6AD054461C5D66
:1041E000A3460C795C4559D1002C62D039241C5D62
:1041F000A3464C795C4551D1002C5AD03A241C5D21
:10420000A3468C795C4549D1002C52D03B241C5DDF
:10421000A346CC795C4541D1002C4AD03C241C5D9E
:10422000A3460C7A5C4539D1002C42D03D241C5D5C
:10423000A3464C7A5C4531D1002C3AD03E241C5D1B
:10424000A3468C7A5C4529D1002C32D03F241C5DDA
:10425000A346CC7A5C4521D1002C2AD040241C5D99
:10426000A3460C7B5C4519D1002C22D041241C5D57
:10427000A3464C7B5C4511D1002C1AD042241C5D16
:10428000A3468C7B5C4509D1002C12D043241C5DD5
:10429000A346CC7B5C4501D1002C0AD09F4207D0BD
:1042A00052684260954200D077E7C268426074E786
:1042B000002318003CBC90469946A246AB46F0BD90
:1042C000C2685FE7F0B5C64600B5050000F03CFFE8
:1042D000304A314E1368013313603368002B28D005
:1042E0002E4FEB6A3A68002A1DD02D4C2D490A68E2
:1042F00001320A602C4A1168994200D2136098007A
:10430000C0188000291D2018FFF7F4FE00F028FFD8
:104310003B68002B04D03368DA6AEB6A9A4210D308
:1043200004BC9046F0BD3268D26A9A42DDD835604E
:10433000DBE735601368012B06D0EB6A184C174F8A
:10434000D4E700F0F5FEEBE7C823154C98462700AC
:10435000A04438001437FFF7BDFEB845F9D1134B20
:1043600098461800FFF7B6FE114F3800FFF7B2FE6F
:104370001048FFF7AFFE1048FFF7ACFE0F48FFF7FD
:10438000A9FE42460E4B1A600E4B1F60EB6A034FAC
:10439000ACE7C0462C010020580000208801002016
:1043A000640000203C010020400100204401002066
:1043B0005801002074010020A00100208C01002081
:1043C0005C00002060000020034B1B68DB68DB689A
:1043D0005A68024B1A6070475C0000206C01002094
:1043E000F0B5CE4600B5089C96000D0032000700DF
:1043F000A521206B994602F073FB236B043E9C467B
:10440000072366442A789E432D33E2542B78002BF1
:1044100056D035236A78E2546B78002B50D036237F
:10442000AA78E254AB78002B4AD03723EA78E254DA
:10443000EB78002B44D038232A79E2542B79002BD7
:104440003ED039236A79E2546B79002B38D03A2375
:10445000AA79E254AB79002B32D03B23EA79E254BB
:10446000EB79002B2CD03C232A7AE2542B7A002BB8
:1044700026D03D236A7AE2546B7A002B20D03E236B
:10448000AA7AE254AB7A002B1AD03F23EA7AE2549C
:10449000EB7A002B14D040232A7BE2542B7B002B99
:1044A0000ED041236A7BE2546B7B002B08D0422361
:1044B000AA7BE254AB7B002B02D04323EA7BE2547D
:1044C00043230022069DE254092D00D90925E56207
:1044D000201DFFF70BFE20001830FFF707FE0A2310
:1044E00048225D1B002324616364A5616462A354B8
:1044F0000232A35439004A46300000F0CBFD079B3E
:104500002060002B00D01C6004BC9146F0BDC0466A
:10451000F8B5174B0F001E6800214A230400154D03
:104520002A682868D1540430FFF708FE631C17D0AE
:104530002B6834195C60A6420BD80F4B18682968A9
:104540000431FFF7E3FD0D4B1A68A24200D91C604D
:10455000F8BD0B4B186829680431FFF7D7FDF7E762
:10456000002FE5D0296807480431FFF7C3FDEFE7C6
:10457000B4010020580000205C0000206C010020E5
:10458000600000208C010020F8B54746CE461C4B49
:1045900080B599461B4B492798461B4E1B4D2B68EF
:1045A000002B21D000F0D0FD4B46DB68DC68201DDD
:1045B000FFF7C4FD3368013B33602B68013B2B6080
:1045C00000F0CEFDE35D002B05D0012B13D0022BB4
:1045D000E5D072B6FEE7206B00F06EFE200000F022
:1045E0006BFE2B68002BDDD143461B68012BD6D90F
:1045F00000F09EFDD3E7200000F05EFECFE7C0464E
:10460000A0010020640000202C01002030010020C7
:1046100070B586B00B9D0C9C002D0AD0002C06D0E6
:104620004C260496049E4C2E05D072B6FEE772B658
:10463000FEE772B6FEE7256302264925665505ADFD
:1046400001950A9D02940095FFF7CAFE2000FFF72E
:1046500039FE059806B070BDF8B5CE4647469600BF
:1046600080B5804630000D00994600F0C5FD071E5C
:1046700000D1A4E04C2000F0BFFD041E00D198E062
:10468000492300220763A521C2543200380002F0FA
:1046900027FA236B043E9C46072366442A789E43F0
:1046A0002D33E2542B78002B56D035236A78E25410
:1046B0006B78002B50D03623AA78E254AB78002BCD
:1046C0004AD03723EA78E254EB78002B44D03823E1
:1046D0002A79E2542B79002B3ED039236A79E254AF
:1046E0006B79002B38D03A23AA79E254AB79002BAE
:1046F00032D03B23EA79E254EB79002B2CD03C23D7
:104700002A7AE2542B7A002B26D03D236A7AE2548F
:104710006B7A002B20D03E23AA7AE254AB7A002B8E
:104720001AD03F23EA7AE254EB7A002B14D04023CC
:104730002A7BE2542B7B002B0ED041236A7BE25470
:104740006B7B002B08D04223AA7BE254AB7B002B6F
:1047500002D04323EA7BE25443230022089DE25423
:10476000092D24D8201DE562FFF7C0FC2000183079
:10477000FFF7BCFC0A235B1BA361482200232461D2
:1047800063646462A3540232A35441464A46300033
:1047900000F080FC099B2060002B00D01C602000F2
:1047A000FFF790FD01200CBC90469946F8BD092505
:1047B000D8E7380000F080FD01204042F3E70120F7
:1047C0004042F0E770B5040000F0BEFC2C4D002C18
:1047D00040D0261D3000FFF7B1FCA36A002B03D0A8
:1047E00020001830FFF7AAFC264A13680133136033
:1047F0002B68A34225D0244A1368013B1360492348
:10480000E35C002B05D0012B26D0022B07D072B61B
:10481000FEE7206B00F050FD200000F04DFD1B4B2B
:104820001A681268002A1BD1194B013A1A6000F06D
:1048300097FC184B1B68002B02D02B68A34216D0A4
:1048400070BD31001448FFF755FC144A136801335A
:104850001360ECE72C68BCE7200000F02DFDDEE7DC
:104860001B68DB68DB685A68094B1A60DFE70C4B92
:104870001B68002B01D072B6FEE700F059FCDFE7A1
:10488000580000203C0100202C0100205C0000208A
:104890006C01002088010020A001002030010020D0
:1048A0003801002070B5041E0CD0174D2B688342D0
:1048B00007D000F049FC154B62699A4204D000F021
:1048C0004FFC70BD72B6FEE7A36A114A9342F6D060
:1048D000002BF4D1261D3000FFF730FC0D4AE36AAF
:1048E00011688B4200D91360142058430A4B3100E1
:1048F000C018FFF7FFFB2B68E26ADB6A9A42DED33F
:1049000000F016FCDBE7C046580000208C010020B8
:1049100074010020400100206400002030B5002513
:104920008BB007AA06A905A80595069500F0C0FE5C
:10493000069B059C002B0BD0002C07D04C21089126
:104940000899079A4C2905D072B6FEE772B6FEE7C1
:1049500072B6FEE7236302214923E15409AB0193B8
:104960000D4900230D4802940095FFF739FD200002
:10497000FFF7A8FC099B002B0BD072B60122084B55
:1049800052421A60074B02321A60074B1D6000F05A
:1049900093FB0BB030BDC046B06C000889450008E1
:1049A0006C01002088010020B4010020024A136835
:1049B000013313607047C04638010020F0B5DE4671
:1049C00057464E464546E0B5464B83B01B68002B24
:1049D0001AD1454B1F6801371F60002F26D0434E68
:1049E00033680025BB4228D9414B9946414B9A4632
:1049F00053461B68DA6A93009B184A469B00D358BB
:104A0000012B06D9012504E000253B4A1368013338
:104A100013603A4B1B68002B00D00125280003B01F
:104A20003CBC90469946A246AB46F0BD344C236848
:104A30001B68002B41D072B6FEE72D4B304C9946D7
:104A40002C4B9A462F4B9B4623681B68002B2FD07C
:104A50002368DB68DB6898465B689F422BD343463C
:104A6000043318000193FFF769FB43469B6A002B50
:104A700003D040461830FFF761FB43465A46DB6AD5
:104A80001268934201D95A4613609800C0188000FA
:104A900048440199FFF72EFB534642461B68D26AF1
:104AA000DB6A9A42D0D3236801251B68002BCFD143
:104AB000013B33609CE733609AE7134B2268196827
:104AC00021601A60114A13680133136023681B6860
:104AD000002B03D1054E013B336081E7FFF774FCE7
:104AE0007DE7C04638010020B40100206C010020A1
:104AF000640000205800002034010020B80100208C
:104B00005C000020400100206000002070010020B7
:104B1000F0B5D6464F464646344CC0B52368002B08
:104B200001D172B6FEE700F00FFB2368013B236062
:104B30002468002C49D12E4B1B68002B45D02D4BEF
:104B40002D4D9A462D4B2E4F99462E4E3B68002BED
:104B50001FD0FB68DC6820001830FFF7EFFA231D38
:104B600018009846FFF7EAFAE36A3268934200D9E0
:104B700033609800C018800050444146FFF7BAFAED
:104B80004B461B68E26ADB6A9A42DFD301232B6043
:104B9000DCE7002C08D01C4B1B681B68002B1DD1C8
:104BA00001221A4B52421A60194E3468002C09D067
:104BB0000127FFF703FF002800D02F60013C002CE5
:104BC000F7D134602B68002B0BD1002400F0C8FA19
:104BD00020001CBC90469946A246F0BDFFF7F4FBAE
:104BE000E2E700F0A5FA0124F0E7C0463801002012
:104BF0002C01002064000020B80100205800002093
:104C000074010020400100205C0000206C010020A5
:104C10003401002010B500280FD0094B1A68002A73
:104C200001D072B6FEE71A68002101321A60FFF760
:104C30006FFCFFF76DFF002801D100F079FA10BD7D
:104C400038010020F8B54546DE4657464E46E0B5E9
:104C50000500FBF759FA0F2801D972B6FEE76A4A38
:104C60000A261368013313603523994601339846A9
:104C700002339A46654A013EB3009B1964499B0082
:104C8000CB58002B00D199E0100013685B6808C076
:104C9000834200D19368D96834278C4686E029780E
:104CA000DC688B46E15D59457ED1002900D1A2E048
:104CB0004946615C8B466978594575D1002900D118
:104CC00099E04146615C8B46A97859456CD1002931
:104CD00000D190E03721615C8B46E978594563D17A
:104CE000002900D187E05146615C8B4629795945FE
:104CF0005AD1002900D17EE03921615C8B46697967
:104D0000594551D1002976D03A21615C8B46A97969
:104D1000594549D100296ED03B21615C8B46E97928
:104D2000594541D1002966D03C21615C8B46297AE6
:104D3000594539D100295ED03D21615C8B46697AA5
:104D4000594531D1002956D03E21615C8B46A97A64
:104D5000594529D100294ED03F21615C8B46E97A23
:104D6000594521D1002946D04021615C8B46297BE1
:104D7000594519D100293ED04121615C8B46697BA0
:104D8000594511D1002936D04221615C8B46A97B5F
:104D9000594509D100292ED04321615C8B46E97B1E
:104DA000594501D1002926D0A44507D05B6813607E
:104DB000834200D073E79368136070E7143A002EC3
:104DC00000D058E7134B29001868FFF7C9F9041EF3
:104DD00011D1114B29001868FFF7C2F9041E0AD13E
:104DE00029000E48FFF7BCF9041E04D129000C4825
:104DF000FFF7B6F90400FFF78BFE20003CBC90469D
:104E00009946A246AB46F8BD380100201C0100209F
:104E1000640000205C000020600000208C01002065
:104E2000A00100204C4B70B51B68002B7AD14B4A77
:104E30004B4C136023684B491B6B1A688A4208D19C
:104E40005968914205D19A688A4202D1DB6893423F
:104E500004D020682168343100F028FC424D4349D9
:104E60002A689300981880000858002860D1002A0A
:104E700056D0531E9800C01880000858002855D1FD
:104E8000002B4DD0931E9800C018800008580028B1
:104E90004CD1002B44D0D31E9800C0188000085875
:104EA000002843D1002B3BD0131F9800C01880006E
:104EB000085800283AD1002B32D0531F9800C01850
:104EC00080000858002831D1002B29D0931F98006A
:104ED000C01880000858002828D1002B20D0D31FEC
:104EE0009800C0188000085800281FD1002B17D048
:104EF000013B9800C01880000858002816D1002BEC
:104F00000ED0013B14305843085800280ED1002B16
:104F100006D0013B9A00D21892008A58002A05D187
:104F200072B6FEE701220D4B1A6070BD1A009B009D
:104F30009B189B00CE18706808334068CB187060CF
:104F4000984203D0C36823602A60EEE714235343DA
:104F50004068C9184860F5E738010020B801002012
:104F600058000020A5A5A5A5400100206400002050
:104F7000F8B5040000F0E8F8274D002C00D12C68AB
:104F8000271D3800FFF7DAF8A36A002B03D02000B2
:104F90001830FFF7D3F8214E39003000FFF7AAF898
:104FA0004823E25C012A01D10022E25400F0D8F843
:104FB0001B4F3B68002B03D12B68A3420FD0F8BDD9
:104FC00000F0C2F8174B1A681268002A18D1164B65
:104FD000013A1A6000F0C4F82B68A342EFD13B6895
:104FE000002B05D0114B1B68002B12D072B6FEE7C8
:104FF0000F4A31681268914209D0FFF713FFDEE7CC
:105000001B68DB68DB685A68074B1A60E2E72B60B5
:10501000D5E700F08DF8D2E7580000208C01002081
:10502000880100205C0000206C0100203801002075
:105030002C010020002382B00193064B1B68013332
:1050400001D072B6FEE772B6019B002BFCD002B015
:105050007047C04600000020000000000000000073
:105060000B4A13681868203080F30988022080F307
:105070001488BFF36F8F3FBCAE4608BC04BC62B659
:105080001847C046C046C046C046C046C046C04697
:105090005800002010B58024031F64041C60043BEA
:1050A00019600349043B1960143B40381A6010BD75
:1050B000355000087047C046FF22174B120419688C
:1050C00030B50A431A60FF221968002412060A4309
:1050D000FA211A60114D124B2C601C60114B83B0E9
:1050E00018688900FBF718F80F4B01381860072380
:1050F0002B600E4D2C60FFF7B3FFFFF793FE2B687C
:105100000194013301D072B6FEE772B6019B002B09
:10511000FCD0002003B030BD20ED00E010E000E046
:1051200018E000E02C00002014E000E00000002067
:105130008022044B52051A60BFF34F8FBFF36F8F6D
:105140007047C04604ED00E072B6044A13680133AC
:105150001360BFF34F8FBFF36F8F704700000020C5
:10516000054A1368002B01D172B6FEE7013B1360BC
:10517000002B00D162B6704700000020EFF31080D2
:1051800072B6704780F310887047C0460000000078
:10519000EFF309800E4B1A6820381060F0C04446C7
:1051A0004D4656465F46F0C008B572B6FFF73AFE68
:1051B00062B60CBC116808681030F0C8A046A94659
:1051C000B246BB4680F309882038F0C81847C0466D
:1051D0005800002010B5FFF7D1FF0400FFF7EEFBE9
:1051E000002803D08022034B52051A602000FFF7ED
:1051F000C9FF10BD04ED00E070B50400FFF7D6FB59
:1052000027490A68002A0DD107209C25254B6D01EE
:105210008343254803604260244821C3012345603D
:1052200002600B600026002C30D0200007230830DD
:1052300003422FD11E4A431E0026934226D81A4C01
:105240002368250004E01A68002A04D01D0013001A
:1052500059688142F7D3154A93421ED01E001A683E
:1052600008362A600A1A102A0CD91D186A6058607C
:10527000696800E01400226853688B42FAD3010089
:105280002A6025600B4B1A68511A1960FFF740FC21
:10529000300070BD98430830CCE70026F6E7C046E2
:1052A0004C150020C401002050150020441500209A
:1052B0007E1300000400002010B5002814D0083828
:1052C0000400FFF773FB6168084A00E01A001368E6
:1052D00058688842FAD32360054B14601A689446D4
:1052E00061441960FFF714FC10BDC0465015002042
:1052F000040000200122014B1A707047591500204C
:105300003A4BF0B54E469946394BDE469B468023D4
:10531000574645465B019846E0B5364C364F83B05C
:1053200000F062FD0320FFF775FCFFF73FFB334BF6
:105330001B78012B56D000254B465E5943466946E3
:10534000200001930096FDF79BFD00212000FDF752
:1053500001FE2000FDF7D0FBFA2120008900FDF7B7
:10536000AFFC2000FDF70EFD2000FDF735FC69467F
:10537000200000960197FDF783FD4B465E5943469A
:105380006946200001930096FDF77AFD0021200078
:10539000FDF7E0FD2000FDF7AFFBFA2120008900BA
:1053A000FDF78EFC2000FDF7EDFC82462000FDF7A6
:1053B00013FC6946200000960197FDF761FD5B46EE
:1053C00052465A510435142DB6D1FFF7A1FB00F017
:1053D0001BFD0B48FFF736FCFFF764FA0020FFF7D0
:1053E000C7FD9DE7002000F09BFCA4E71000002013
:1053F000D416002074170020011000005A15002058
:10540000BC6C000870B5054D054C2800FFF71AFC70
:10541000FFF748FA2088FFF7FDFBF6E7B86C0008B5
:1054200008000020F0B55746DE464E464546594B2B
:10543000E0B59B46584B83B09A46584B584C99461A
:10544000584B594F984635E0584A1370281CFDF7C1
:1054500045F9574A574BFAF7EBFF002802D00A23C9
:10546000554A13606068FDF707F9544A544BFCF73E
:1054700091FE544B544AFBF767FFFDF781F9434611
:105480001860524B0A211D88514B68001B78401947
:10549000800026680193FAF7C9FE864202D9019B73
:1054A000012B67D0019BAE424ED8002B58D0002074
:1054B000FFF75EFD474B48481B8821695843FAF7C0
:1054C0002BFE5B461860FDF7D7F80022434BFCF734
:1054D00057FAFDF755F95346051C18608020A3685C
:1054E0004001C01AFBF7F0FE291CFBF78DFB3C497D
:1054F000FBF7B2F94B463B491860FBF7ADF93A4B65
:105500003A491860FBF780FB394B38491860FBF7C4
:105510007BFBFAF7EFFF374B1860FBF7D5FE3968D6
:10552000FBF700F8214B38601B780133DBB2132BFB
:105530008AD900231D4A30491370FBF78DF92F4B90
:10554000186000233B6081E7002BB0D1012000F000
:1055500087FB4B20FFF75EFB002000F081FBA6E7F6
:105560001B4A0133137001F0F9F8FA23244A5B0057
:1055700013809CE70023164A137000F05BFE0020A6
:1055800000F0CEFB022000F03DF8FA231C4A1B017C
:1055900013808CE7EC160020C4160020E8160020CB
:1055A000D4160020C8160020F4160020581500203C
:1055B00066666666666606402400002067A927B90D
:1055C000E4343B3F3333D33F333333330C000020D9
:1055D0000A0000207800F81F8D04000000408F4072
:1055E00000F07F4500002041D016002000007A44E2
:1055F000F0160020C01600200000A041CC160020AC
:105600000800002010B592B030220021040006A846
:1056100001F066FA14220021684601F061FA21497E
:10562000214A0B681A4080231B0113430B6012238D
:105630000593113B089310220B93002309920C93BE
:10564000012C2BD0022C1AD180231B020D93002396
:1056500005A80E93FDF710FE00281CD10F23009320
:105660000023002168460193029303930493FEF7FD
:10567000F5F8002801D000F0F1FA12B010BD032CAB
:10568000E5D1A0231B020D93002305A80E93FDF77F
:10569000F3FD0028E2D000F0E1FADFE7C023DB01F0
:1056A0000D93D4E700700040FFE7FFFF7047C0464E
:1056B000034B0360034B0B60402313607047C046ED
:1056C0005C1600205C15002010B50122042105485D
:1056D000FDF7CCFD0A2000F0A7FB0120FEF7F2FC4D
:1056E000F8E7C04600040050F8B5012000F0B8FA11
:1056F00096204000FDF708F90125072700247E1BAE
:10570000F6B22100280000F0B5FA2100300000F0C8
:10571000B1FA02340120FDF7F7F8CA2CF1D10135B6
:10572000EDB2042DEAD1642465002900012000F0C7
:10573000A1FA2900032000F09DFA2900042000F0BE
:1057400099FA013C2900062000F094FAE4B2032003
:10575000FDF7DAF8FF2CE7D19B3C65002900022019
:1057600000F088FA013C2900052000F083FAE4B239
:105770000320FDF7C9F8FF2CEFD1FA204000FDF718
:10578000C3F8002000F06CFAF8BDC04610B592B026
:105790003022002106A801F0A3F914220021684656
:1057A00001F09EF9C023104A5B01116800240B43ED
:1057B000136012230593113B08930B93C02310220F
:1057C000DB0105A809920D930C940E94FDF754FD8E
:1057D0000F230021684600930194029403940494DB
:1057E000FEF73CF812B010BD00700040F0B5DE4688
:1057F000454657464E46E0B593B00BADFDF762F80F
:10580000FFF7C4FF14220021280001F069F90421E8
:105810000127E64B8A46DA6AE5480A43DA62DA6A21
:1058200000240A400292029ADA6A03263A43DA62B4
:10583000DA6A3A400392039A0222D96A1143D96282
:10584000DB6A45211A4004920022049BFDF70EFDFD
:10585000C02329001B02D7486E600B93AC60FDF794
:1058600011FCA020D44B2900C0056E600B93AC60E6
:10587000FDF708FC45232900CD486F600B93AC6011
:10588000EC60FDF7FFFB82232900C9486E600B9393
:10589000AC60FDF7F7FB802329005B00C4480B9345
:1058A000AF606C60FDF7EEFB1022002107A801F04D
:1058B00017F90822002105A801F012F91022002191
:1058C000280001F00DF98023BC4EDB053360C823AE
:1058D00030009846F3607460B46034617461FEF720
:1058E00009F9802307A95B01300099460793FEF769
:1058F00059FA3000FEF74CF905A9300005940694DA
:10590000FEF78EFB60239B460B9343462900002243
:1059100030006B60AC60EC60FEF78CF9290004226B
:105920003000FEF787F9300000F086FB10220021DE
:1059300007A801F0D5F80822002105A801F0D0F849
:1059400010220021280001F0CBF89D4E9D4B300025
:10595000336043467460F360B46034617461FEF791
:10596000C9F84B4607A930000793FEF71BFA300031
:10597000FEF70EF905A9300005940694FEF750FBDA
:105980005B460B9343462900002230006B60AC60FD
:10599000EC60FEF74FF9290004223000FEF74AF9C7
:1059A000300000F049FB1022002107A801F098F810
:1059B0000822002105A801F093F8102200212800F8
:1059C00001F08EF8804E814B3000336043467460A6
:1059D000F360B46034617461FEF78CF84B4607A93C
:1059E00030000793FEF7DEF93000FEF7D1F805A985
:1059F000300005940694FEF713FB5B460B93434679
:105A00002900002230006B60AC60EC60FEF712F9F8
:105A1000290004223000FEF70DF9300000F00CFBE5
:105A200008220021280001F05BF8694E694B300024
:105A3000336090239B0373600623B36398461A3345
:105A4000F4540133F754C223FF337362963BFF3B98
:105A5000F4545346376173617763F761F463B4605C
:105A6000F460B4623463B461FCF75EFF4B4630000F
:105A700029006B600B97FDF703FA574B30002900A4
:105A80000B93FDF7FDF9554B300029000B93FDF703
:105A9000F7F9534B300029000B93FDF7F1F9514B07
:105AA000290030000B93FDF7EBF900F037FA0020E6
:105AB00000F036F90220FFF7A5FDFFF715FE2A00DA
:105AC000494B43CB43C243CB43C21B680021136005
:105AD0002800FEF7C9FA0525444F0023386040220C
